:020000040800F2
:10000000009C0020210300089505000897050008C2
:10001000990500089B0500089D05000800000000E8
:10002000000000000000000000000000690200085D
:100030009F05000800000000BD020008AD2A00086E
:100040003B0300083B0300083B0300083B03000898
:100050003B0300083B0300083B0300083B03000888
:100060003B0300083B0300083B0300083B03000878
:100070003B0300083B0300083B0300083B03000868
:100080003B0300083B0300083B0300083B03000858
:100090003B0300083B0300083B0300083B03000848
:1000A0003B0300083B0300083B0300083B03000838
:1000B0003B0300083B0300083B0300083B03000828
:1000C0003B0300083B0300083B0300083B03000818
:1000D0003B0300087B0600083B0300083B030008C5
:1000E0003B0300083B0300083B0300083B030008F8
:1000F0003B0300083B0300083B0300083B030008E8
:100100003B0300083B0300083B0300083B030008D7
:100110003B0300083B0300083B0300083B030008C7
:100120003B0300083B0300083B0300083B030008B7
:100130003B0300083B0300083B0300083B030008A7
:100140003B0300083B0300083B0300083B03000897
:100150003B0300083B0300083B0300083B03000887
:100160003B0300083B0300083B0300083B03000877
:100170003B0300083B0300083B0300083B03000867
:100180003B0300083B03000800F002F800F05CF8B5
:100190000AA090E8000C82448344AAF10107DA45E2
:1001A00001D100F051F8AFF2090EBAE80F0013F0D8
:1001B000010F18BFFB1A43F001031847685C0000E9
:1001C000885C00000A444FF0000C10F8013B13F06B
:1001D000070408BF10F8014B1D1108BF10F8015BA0
:1001E000641E05D010F8016B641E01F8016BF9D193
:1001F00013F0080F1EBF10F8014BAD1C0C1B09D1EA
:100200006D1E58BF01F801CBFAD505E014F8016B5B
:1002100001F8016B6D1EF9D59142D6D370470000ED
:100220000023002400250026103A28BF78C1FBD8FF
:10023000520728BF30C148BF0B6070471FB504F09C
:100240004FFB1FBD10B510BD04F023F91146FFF799
:10025000F5FF00F050F904F041F903B4FFF7F2FFA5
:1002600003BC04F045F900002A4B19680868B0E89F
:10027000F04F80F30988BFF36F8F4FF0000080F3D9
:10028000118870470000000006480068006880F38D
:10029000088862B661B6BFF34F8FBFF36F8F00DF80
:1002A00000BF00BF08ED00E0DFF80C00016841F47A
:1002B00070010160704700BF88ED00E0EFF3098036
:1002C000BFF36F8F134B1A681EF0100F08BF20ED9D
:1002D000108A20E9F04F106008B44FF0500080F30E
:1002E0001188BFF34F8FBFF36F8F01F089FD4FF07F
:1002F000000080F3118808BC19680868B0E8F04F66
:100300001EF0100F08BFB0EC108A80F30988BFF30D
:100310006F8F704760080020EFF305807047000082
:100320000948804709480047FEE7FEE7FEE7FEE789
:10033000FEE7FEE7FEE7FEE7FEE7FEE704480549C5
:10034000054A064B704700000304000889010008B5
:1003500000960020009C00200098002000980020BB
:100360000CB500205449019000900A6842F4803294
:100370000A604FF4A0430A6802F400320092019A26
:10038000521C0192009A12B9019A9A42F3D10A685A
:10039000920334D50120009047484030026842F073
:1003A000805202604548026842F44042026042487E
:1003B000083002680260026842F40042026002688B
:1003C00042F4A0520260031F3D4A1A600A6842F0DC
:1003D00080720A600A689201FCD53A4A40F20571BF
:1003E0001160016821F003010160016841F0020120
:1003F00001600168C1F381010229FAD10CBD0090AE
:100400000CBD314810B5016841F4700101602A4803
:10041000016841F001010160274A002108321160A2
:1004200002682A4B1A400260031D294A1A600268BA
:1004300022F48022026020480C300160FFF790FF18
:1004400021494FF000608039086010BD70B51A4C2A
:10045000083420681F4A10F00C011F4804D05510C2
:10046000042903D0082903D002601BE0056019E0CD
:100470001149091D0B68C3F380560B6803F03F0355
:1004800016B1B5FBF3F201E0B2FBF3F20B680968B9
:10049000C3F388135A43C1F30141491C4900B2FB1D
:1004A000F1F1016021680C4AC1F30311121D515C86
:1004B0000268CA40026070BD00380240007000400F
:1004C00008544007003C024088ED00E0FFFFF6FEC4
:1004D000103000240024F40000000020234C64208D
:1004E00001F05FFC22A1204600F0B3F8F7E72248B4
:1004F00003F012FCFBE71FB500F083FB00F0D6F819
:1005000000F050F81AA1194800F0A3F84FF000408D
:100510000024CDE90040194B19A23221204600F0F9
:1005200035FC00230A223C21DC2000F0FDFC4FF6C4
:10053000FF7000F018FA0125CDE9005400236E0287
:100540000294324612A1AFF26B00039401F086FAD6
:10055000CDE900540294002332460DA1AFF27100A0
:10056000039401F07BFA01F097FDFEE700100140D3
:100570005A647261766F00009407002058080020CA
:1005800054657374315465737431546573743100F8
:1005900050574D007047FEE7FEE7FEE7FEE7704765
:1005A0007047000070B588B00121102002F013FDE3
:1005B0000121022002F0E7FC02208DF81400002443
:1005C000C0208DF81640012504908DF817500320A7
:1005D000324E8DF8150004A9304602F017FE0722AE
:1005E0000621304602F09BFE07221146304602F0FB
:1005F00096FE4FF416500090ADF808400C20284E9F
:10060000ADF80640ADF80A00ADF80C40ADF8044076
:100610006946304603F085F8012240F22551304604
:1006200003F08FF90121304603F0ECF825208DF816
:10063000180006208DF819008DF81A408DF81B500F
:1006400006A802F0E4FA4FF4407002F0DBFA08B0BA
:1006500070BD70B50C46054606E028884006FCD5FE
:10066000284603F0F5F8641C21780029F5D170BD07
:1006700002885206FCD503F0EBB810B54FF4407079
:1006800002F0C0FA06488188064AC9B2064B1170CA
:1006900000221A70BDE8104003F0DAB800040240EE
:1006A00000100140EB080020EA0800202DE9FC4181
:1006B000012400257D4FCDE9005426032B46224618
:1006C0003146384601F081F8CDE9005400231A463E
:1006D000E102384601F079F83146384602F010FE62
:1006E000BDE8FC410121724800F079BE2DE9F041DE
:1006F0006E4E0F4604464FF480552946304602F0B0
:1007000001FE21786A4C204600F082FF022300227D
:100710003946204600F0A6FF29463046BDE8F041A4
:1007200002F0EEBD1CB5D0208DF80400694601A88A
:10073000FFF7DCFF9DF800004FF6FF7101EA002093
:100740009DF801100844C0F30B101CBD1CB590208F
:100750008DF80400694601A8FFF7C8FF9DF8000066
:100760004FF6FF7101EA00209DF801100844C0F324
:100770000B101CBD10B5FFF7D5FF4E4C2080FFF7C6
:10078000E5FF6080012010BD48481030006840F34C
:10079000C020401C70472DE9F04100249EB0274640
:1007A0002646DFF810816D46FFF7E4FF50B1B8F838
:1007B000001025F8141005EB4401B8F80200641C81
:1007C0008887E4B21E2CEFD35FF0070035F81010D5
:1007D00031448EB205EB4001401C898FC0B23944D0
:1007E0008FB21728F2D33109A8F800104FF4006136
:1007F000A1EB1711A8F802101EB0BDE8F08170B58A
:10080000FFF7C9FF2B4C2088AD3803F0FEFF9FEDAA
:100810002A1B53EC112B03F073FE03F0C9FFC0F148
:10082000F00085B225806088F53803F0EEFF9FED7B
:10083000241B53EC112B03F063FE03F0B9FFC0F54A
:10084000A07080B26080F02D01D9F02121804FF49A
:10085000A071884200D9618070BD70B50D46064612
:100860004FF40061114802F037FD00281DD1FFF759
:10087000C6FF104C2088A0806088E080FFF7BFFF93
:10088000A18820880A1F90420FDB091D88420CD8DE
:10089000E18862880B1F9A4207DB091D8A4204D84F
:1008A000A080E2803080E088288070BD0004024093
:1008B0000038004034080020C1CAA145B6731B406F
:1008C000D34D62105839144070B504468021FC485D
:1008D00002F016FDFB4D0421284602F013FD2146CF
:1008E000F94800F095FE2846BDE87040042102F06A
:1008F00007BD70B504468021F14802F003FDF14DBB
:100900000421284602F0FEFC2146EF4800F080FE5C
:100910002846BDE87040042102F0F2BC2DE9F04108
:1009200007461C4615460E462A20FFF7E2FF380A06
:10093000FFF7CAFFF8B2FFF7C7FF280AFFF7C4FFA7
:10094000E8B2FFF7C1FF2B20FFF7D3FF300AFFF714
:10095000BBFFF0B2FFF7B8FF200AFFF7B5FFE0B228
:10096000BDE8F041B0E72DE9F041060AC4B2D7482E
:1009700041880088491E8BB2401E82B20021084681
:10098000FFF7CCFF2C20FFF7B4FF00254FF496377C
:10099000F0B2FFF799FF2046FFF796FF6D1CBD42AE
:1009A000F6D3BDE8F08101B5009801E0401E00904B
:1009B0000028FBD108BD10B54021C14802F0A0FCC1
:1009C0000120FFF796FFC248FFF7EDFFCB20FFF7AE
:1009D00090FF3920FFF778FF2C20FFF775FF0020EC
:1009E000FFF772FF3420FFF76FFF0220FFF76CFF65
:1009F000CF20FFF77EFF0020FFF766FFC120FFF743
:100A000063FF3020FFF760FFE820FFF772FF8520CB
:100A1000FFF75AFF0020FFF757FF7820FFF754FF3A
:100A2000EA20FFF766FF0020FFF74EFF0020FFF7E8
:100A30004BFFED20FFF75DFF6420FFF745FF03202C
:100A4000FFF742FF1220FFF73FFF8120FFF73CFF37
:100A5000F720FFF74EFF2020FFF736FFC020FFF7FB
:100A600048FF2320FFF730FFC120FFF742FF10208F
:100A7000FFF72AFFC520FFF73CFF3E20FFF724FFCA
:100A80002820FFF721FFC720FFF733FF8620FFF75D
:100A90001BFF3620FFF72DFF4820FFF715FF3A20F8
:100AA000FFF727FF5520FFF70FFFB120FFF721FFCA
:100AB0000020FFF709FF1820FFF706FFB620FFF719
:100AC00018FF0820FFF700FF8220FFF7FDFE272018
:100AD000FFF7FAFEF220FFF70CFF0020FFF7F4FE0D
:100AE0002A20FFF706FF0020FFF7EEFE0020FFF7A9
:100AF000EBFE0020FFF7E8FEEF20FFF7E5FE2B20DE
:100B0000FFF7F7FE0020FFF7DFFE0020FFF7DCFE17
:100B10000120FFF7D9FE3F20FFF7D6FE2620FFF782
:100B2000E8FE0120FFF7D0FEE020FFF7E2FE0F20F5
:100B3000FFF7CAFE3120FFF7C7FE2B20FFF7C4FEE8
:100B40000C20FFF7C1FE0E20FFF7BEFE0820FFF7C6
:100B5000BBFE4E20FFF7B8FEF120FFF7B5FE3720B1
:100B6000FFF7B2FE0720FFF7AFFE1020FFF7ACFE45
:100B70000320FFF7A9FE0E20FFF7A6FE0920FFF7CE
:100B8000A3FE0020FFF7A0FEE120FFF7B2FE002049
:100B9000FFF79AFE0E20FFF797FE1420FFF794FE52
:100BA0000320FFF791FE1120FFF78EFE0720FFF7CD
:100BB0008BFE3120FFF788FEC120FFF785FE48201D
:100BC000FFF782FE0820FFF77FFE0F20FFF77CFE75
:100BD0000C20FFF779FE3120FFF776FE3620FFF775
:100BE00073FE0F20FFF770FE1120FFF782FE3948D9
:100BF000FFF7D9FE2920FFF77CFEBDE810402C202E
:100C000077E62DE9FC41012400252D4ECDE9005465
:100C10002B4622468021304600F0D7FD294FCDE9F2
:100C20000054002301220421384600F0CEFD0023A9
:100C3000012240213046CDE9004500F0C6FD0421E7
:100C4000384602F05DFB00211F4800F0C8FBFFF7AB
:100C5000B2FE1E48F021001F45800580001D018066
:100C60004FF4A07141800471BDE8FC414FF6FF7064
:100C700079E629203DE628203BE610B514460B46D0
:100C80000246FFF74BFE2C20FFF733FEC4F307208C
:100C9000FFF71AFEE0B2BDE8104015E62DE9F0417D
:100CA00005463620FFF725FE084CF0274FF4A076C6
:100CB00095B1012D12D0022D17D0032D17D019E0B8
:100CC000000C024000080240003C004040080020A8
:100CD00080841E0040420F00582000E08820FFF76B
:100CE000F3FD27806680012007E0282000E0E8204F
:100CF000FFF7EAFD268067800020207151E62DE98C
:100D0000F05F1E46DDE90ABA9146FE4C2080618004
:100D10001A781044221D1288904204D97078084431
:100D2000608000202080002727E000BFA9F120007C
:100D300010FB01707268002532F8108019E000BFC6
:100D400008FA05F0000407D560885A46384481B295
:100D50002088284480B209E0BAF1000F08DB6088DF
:100D60005246384481B22088284480B2FFF785FF7C
:100D70006D1C3078A842E3D87F1C7178B942D5D871
:100D80003078218808442080BDE8F09F2DE9FC4799
:100D9000DC4CDDE90A9820801F4615460646618036
:100DA0000BE00A2A0ED00D2A15D0CDE900983B465B
:100DB000618820886D1CFFF7A2FF2A78002AF0D1F5
:100DC000BDE8FC8760887978401C084460806878BA
:100DD0000D2802D026806D1CEFE7002020806D1CBE
:100DE000F9E730B54D7800241D8002E00B782344EC
:100DF0009CB210F8013B002BF8D1148030BD2DE9D6
:100E0000FC5F0546BF481746001D0C460288984601
:100E1000511EAA4200D88DB2BA4200D88FB2418882
:100E2000481EA14200D884B2414501D81FFA80F87B
:100E3000BD4201D2781B00E0E81B0FFA80F944455F
:100E400002D2A8EB040001E0A4EB08000FFA80FA3C
:100E50004FF0FF30BD4201D2012100E00146019177
:100E6000444500D2012083464846D14501DCCAF101
:100E7000000000EBD07040F34F06C9F10000009075
:100E8000214628460C9AFFF7F8FEBD4201D14445A1
:100E900012D0009930468E4205DDA0EB0A010EB259
:100EA000019929448DB25045EADA06EB090006B2F1
:100EB00004EB0B0084B2E3E7BDE8FC9F2DE9F843A7
:100EC0001D46089C16460F4680460B460094FFF7C9
:100ED00096FF42462B46394610460094FFF78FFF97
:100EE00032462B46394610460094FFF788FF2B46C2
:100EF0003246194640460094FFF781FFBDE8F8836B
:100F00002DE9F8431D4617460C468046089E08E02A
:100F100023463A46194640460096FFF770FF641C88
:100F2000A4B2AC42F4D3E9E72DE9FF4F0746C2F182
:100F3000010014460FFA80F8C2EBC43040000FFAEB
:100F400080FA83B00E46081981B24FF001090025DE
:100F5000B8B2069AFFF791FE301B81B2B8B2069A7A
:100F6000FFF78BFE3819B1B280B2069AFFF785FE03
:100F7000B1B2381B57E000BFB8F1000F09DB0AF12E
:100F800002000FFA80FA641E08EB0A0024B20FFA7E
:100F900080F809F102000FFA80F96D1C08EB0900D6
:100FA0002DB20FFA80F87819019006EB040B1FFAA6
:100FB0008BF180B2069AFFF760FE781B00901FFA53
:100FC0008BF180B2069AFFF758FE0198A6EB040B4E
:100FD0001FFA8BF180B2069AFFF74FFE00981FFAB6
:100FE0008BF180B2069AFFF748FE3819019006EBA4
:100FF000050B1FFA8BF180B2069AFFF73EFE381BF5
:1010000000901FFA8BF180B2069AFFF736FE019826
:10101000A6EB050B1FFA8BF180B2069AFFF72DFEA7
:1010200000981FFA8BF180B2069AFFF726FEA542C0
:10103000A2DB07B0BDE8F08F2DE9FE4F0746C2F1F5
:10104000010014460FFA80F9C2EBC43040000FFAD9
:1010500080FB0D46081981B298464FF0010A002620
:10106000B8B21A46FFF709FE281B81B2B8B2424651
:10107000FFF703FE38190290A9B280B24246FFF78B
:10108000FCFD381B0190A9B280B24246FFF7F5FD86
:101090000298ABB2CDF8008082B2A9B249E000BF9D
:1010A000B9F1000F09DB0BF102000FFA80FB641E9F
:1010B00009EB0B0024B20FFA80F90AF102000FFAD3
:1010C00080FA761C09EB0A0036B20FFA80F928196B
:1010D00083B281B2B81BCDE9008007EB060C1FFA82
:1010E0008CF2CDF808C080B2FFF789FE0198291B69
:1010F000DDF808C08BB282B2CDF8008089B21FFA49
:101100008CF001E03C080020FFF779FE391BA8199C
:101110008AB2029183B281B23819CDE9008080B2DF
:10112000FFF76DFE0299A81B8AB283B2CDF800804A
:1011300081B2019880B2FFF762FEA642B0DBBDE843
:10114000FE8FFFF7D6BB00001CB528B1032802D1E3
:10115000FA48AFF300801CBD05210320CDE9000152
:1011600000231A464FF4E041F54800F048FB1CBD4F
:101170007CB50524F34E032538B101280BD0032894
:1011800002D1F148AFF300807CBD00231A464FF432
:10119000607130460CE0CDE9005400231A464FF44C
:1011A0000061304600F02BFB0023E8481A46C021BE
:1011B000CDE9005400F023FB7CBD1CB50521E44CB7
:1011C000032238B101280BD0032802D1E148AFF344
:1011D00000801CBDCDE9002100231A46642105E0F2
:1011E000CDE9002100231A464FF4E041204600F0EB
:1011F00006FB1CBD1CB50621032238B101280CD00A
:10120000032802D1D448AFF300801CBDCDE90021F2
:1012100000231A463821D14806E0CDE900210023F9
:101220001A464FF4E051CE4800F0E9FA1CBD7CB5F7
:101230000524CA4E032548B1012815D002281DD027
:10124000032802D1C748AFF300807CBDCDE900542C
:1012500000231A464FF48061304600F0D0FA002394
:101260001A460C21BE4804E000231A464FF46041A0
:101270003046CDE9005400F0C2FA7CBD00231A4686
:101280000D21B948F5E71CB50521032238B1012825
:101290000CD0032802D1B548AFF300801CBDCDE9C6
:1012A000002100231A46E021B14805E0CDE90021E4
:1012B00000231A463821A94800F0A1FA1CBD2DE9E7
:1012C000FF4F85B006469B461746684602F003F975
:1012D000A648A44AA049DFF87C82DFF86C92DFF8C8
:1012E0005CA2A44D0024864207D1286840F48050B7
:1012F00028600698FFF7C7FF2EE09E48001F964221
:1013000009D1016841F4804101600698FFF78FFF21
:10131000ADF804400BE08E4209D1016841F4004170
:1013200001600698FFF766FFADF804400BE0464504
:1013300009D1286840F4005028600698FFF73DFF67
:10134000ADF804400BE04E4509D1286840F4801008
:1013500028600698FFF70CFFADF8044009E05645F9
:1013600007D1286840F4001028600698FFF7ECFECB
:10137000F2E7ADF80CB01398ADF80E00ADF80040F0
:101380001298ADF8020047B10120012F08D00221C8
:10139000022F08D0032F0BD00EE0ADF8064004E07A
:1013A000ADF8064006E0ADF80610ADF8084003E0E1
:1013B000ADF80610ADF808004FF40070ADF80A0063
:1013C000308820F0400030806946304602F004F852
:1013D000308840F04000308009B0BDE8F08F2DE942
:1013E000FC5F0446DFF884815E48DFF86CC1594F2A
:1013F0000025DFF85491DFF844A18B464FF4827644
:10140000444503D120230022404626E0844206D1F1
:10141000CDE9006520230022FFF751FF09E0644574
:1014200007D1CDE9006500231A466046FFF747FF64
:101430000AE03846844207D1CDE900652023002226
:101440005946FFF73CFF02E04846844202D050462E
:10145000844206D1202300225946CDE90065FFF7DA
:101460002EFFBDE8FC9F2DE9F74F0446DFF8FC8016
:101470003C48DFF8E4C0374F0025DFF8CC90DFF8B8
:10148000BCA082B093464FF48276444505D1CDE9A5
:10149000006520234046039928E0844206D1CDE927
:1014A000006520230399FFF70AFF09E0644507D18F
:1014B000CDE90065002360460399FFF700FF0AE0CD
:1014C0003846844207D1CDE9006520235A46039966
:1014D000FFF7F5FE02E04846844202D050468442BF
:1014E00006D1CDE9006520235A460399FFF7E7FEB0
:1014F00005B072E72DE9FF4F83B00446DDE91065C2
:10150000DFF868801748DFF850C0124FDFF83890D6
:10151000DFF828A09346444506D1CDE9006513467F
:101520004046069A049948E0844225D1CDE90065F9
:101530001346069A0499FFF7C2FE28E000540140C2
:10154000001802400014024000500140001C0240FC
:101550000010024000340140003C00400004024002
:1015600000080240003800400020024000300140E6
:101570000000024044380240644508D1CDE90065CE
:1015800013466046069A0499FFF799FE0AE038462A
:10159000844207D1CDE900655B46069A0499FFF7BE
:1015A0008EFE02E04846844202D05046844206D174
:1015B000CDE900655B46069A0499FFF780FE07B007
:1015C0000BE77FB50D00044620D0684601F046FCCD
:1015D0004A48844208D04A48844205D04948844257
:1015E00002D04948844201D1039900E002990020C9
:1015F0000123421C03FA02F4B1FBF4F4AC4202D81A
:10160000C00004B070BDD0B20828F2D33820F8E78B
:10161000818101898907FCD50189C907FCD001892D
:101620000906FCD48089C0B2704770B50D460646E5
:10163000002406E0295D3046FFF7EAFF1055641CE0
:10164000A4B29C42F6D370BD30B50C4605460023CB
:1016500005E0E15C2846FFF7DBFF5B1C9BB2934291
:10166000F7D330BD70B50D460646002406E011469E
:101670003046FFF7CDFF2855641CA4B29C42F6D338
:1016800070BD818101898907FCD50189C907FCD01A
:1016900001890906FCD48089704770B50D4606465D
:1016A000002408E035F814103046FFF7EAFF22F86E
:1016B0001400641CA4B29C42F4D370BD30B50C4637
:1016C0000546002307E000BF34F813102846FFF753
:1016D000D8FF5B1C9BB29342F6D330BD70B50D466C
:1016E0000646002407E011463046FFF7CAFF25F8FA
:1016F0001400641CA4B29C42F5D370BD00300140BC
:101700000034014000500140005401402DE9F04FE9
:10171000DFF81483C54FDFF818C3C64EC64DC74C5B
:10172000C74BC84ADFF82093DFF820A3DFF820B3C7
:10173000C849404503D1086840F0010042E0B84282
:1017400004D10F6847F002070F6006E0604504D13E
:101750000E6846F004060E6006E0B04204D10D6843
:1017600045F008050D6006E0A84204D10C6844F07D
:1017700010040C6006E0A04204D10B6843F0200383
:101780000B6006E0984204D10A6842F040020A6009
:1017900006E0904204D10A6842F080020A6006E046
:1017A000484504D10A6842F480720A6005E0504559
:1017B00003D1086840F4007004E0584503D108687C
:1017C00040F480600860BDE8F08F2DE9F0471D46C9
:1017D000DDE9088716460C0081460ED0FFF796FF1C
:1017E0009D48014606718571046080F80780477145
:1017F0004846BDE8F04701F009BDBDE8F0872DE996
:10180000F05F1F46DDE90A9A90460E00834624D019
:10181000FFF77CFF0025012404FA05F030420AD0CE
:10182000002101E04008491C0128FBD889B252463A
:10183000584601F074FD6D1C102DEDD38648022131
:10184000017180F806800660C77180F80590014636
:101850005846BDE8F05F01F0D9BCBDE8F09F70B517
:10186000002201255FF0030305FA02F40C4205D0C3
:101870000468560003FA06F634430460521CD2B2E0
:10188000102AF1D370BD70B5002201255FF003036B
:1018900005FA02F40C4205D00468560003FA06F675
:1018A000B4430460521CD2B2102AF1D370BDF0B51B
:1018B000002201235FF0030403FA02F50D4208D071
:1018C0000568560004FA06F7BD4303FA06F73D43E0
:1018D0000560521CD2B2102AEED3F0BD2DE9F04FB4
:1018E0000146DFF844810020504A514B514C524D83
:1018F000524E534FDFF84CC1DFF84C91DFF84CA14A
:10190000DFF84CB1414522D0914201D1012003E0E2
:10191000994201D1022003E0A14201D1032003E05A
:10192000A94201D1042003E0B14201D1052003E026
:10193000B94201D1062003E0614501D1072003E04F
:10194000494501D1082003E0514501D109203AE77A
:101950005945FCD10A2036E7002102E0491C89B232
:1019600040080128FAD8084670472DE9F04FDFF803
:10197000B8802E4FDFF8B8C02E4E2F4D2F4C304B75
:10198000304ADFF8C490DFF8C4A0DFF8C4B03149B2
:10199000404503D1086820F0010042E0B84204D17C
:1019A0000F6827F002070F6006E0604504D10E685B
:1019B00026F004060E6006E0B04204D10D6825F062
:1019C00008050D6006E0A84204D10C6824F010045C
:1019D0000C6006E0A04204D10B6823F020030B60EA
:1019E00006E0984204D10A6822F040020A6006E04C
:1019F000904204D10A6822F080020A6006E048455D
:101A000004D10A6822F480720A6005E0504503D1CF
:101A1000086820F4007004E0584503D1086820F4F9
:101A200080600860CFE60000000002400004024031
:101A300000080240000C0240001002400014024066
:101A400000180240001C0240002002400024024016
:101A50000028024030380240480800202DE9F05F9D
:101A60005FEA000ADDE90B800A9E9B46154689461F
:101A700009D0042E0FD3502080F31188BFF34F8F6D
:101A8000BFF36F8FFEE7502080F31188BFF34F8FB5
:101A9000BFF36F8FFEE710B9A80000F0ABFE0700A0
:101AA00019D04C2000F0A6FE90B1044607636FF0F9
:101AB000030000EB8500384420F0070778070DD0BD
:101AC000502080F31188BFF34F8FBFF36F8FFEE775
:101AD000384600F0E5FE4FF0FF3485E049463546D4
:101AE000002022180B5C82F834300A5C12B1401CD2
:101AF0001028F6D34FF0000984F84390042D00D34A
:101B00000325201DE56200F03CFE04F1180000F002
:101B100038FE2461C5F104016462A161C4F84490F7
:101B200084F848905A465146384600F0EFFE20604F
:101B3000B8F1000F01D0C8F8004000F08AFFF94D5D
:101B40006868401C68602868DFF8DC8310B1286989
:101B500028B329E02C606868012825D15FF00007D0
:101B600007EB870108EB810000F000FE7F1C042FCB
:101B7000F6D3ED48503000F0F9FDEB48643000F04A
:101B8000F5FDE948783000F0F1FDE7488C3000F0D1
:101B9000EDFDE5485030E8621430286304E0286821
:101BA000C06AB04200D82C60286A401C2862E16AF2
:101BB0000120EA6888401043E86001EB810108EBEE
:101BC0008100211D00F0E0FD012400F05EFF286986
:101BD00050B12868C06AB04206D2D44920070860D4
:101BE000BFF34F8FBFF36F8F2046BDE8F09F2DE905
:101BF000F041CC4C0026A06A40B16069401C606195
:101C0000A06900B101263046BDE8F081A068401C03
:101C1000A060A7689FB9E06A006838B1502080F3DF
:101C20001188BFF34F8FBFF36F8FFEE7E06A216B20
:101C3000E1622063E069401CE06100F083FD606ABE
:101C4000DFF8E482874209D3E06A006880B1E06A85
:101C5000C068C568686887420DD260622068C06A43
:101C600000EB800158F821000128C9D90126C7E7F7
:101C70004FF0FF30F1E7281D00F0AAFDA86A18B167
:101C800005F1180000F0A4FDE86A0121E268814036
:101C90001143E16000EB800108EB8100291D00F099
:101CA00073FDE86A2168C96A8842CDD30126CBE773
:101CB0002DE9F0479B4C0026A06A38B100F0C9FE20
:101CC000A06A401EA062A06A40B148E0502080F3A4
:101CD0001188BFF34F8FBFF36F8FFEE76168924D9E
:101CE0007835012079B3DFF8409280462868E8B162
:101CF000E868C76807F1180000F06AFD381D00F0B9
:101D000067FDF96AE26808FA01F01043E06001EB50
:101D1000810109EB8100391D00F036FDF86A216868
:101D2000C96A8842E2D3C4F81880DFE7606958B115
:101D30004546606940B1FFF75AFF00B1A56160698F
:101D4000401E6061F5E70AE0A069012807D17749E4
:101D5000012600070860BFF34F8FBFF36F8F00F0BD
:101D600094FE3046BDE8F08770B56E4C054620689D
:101D70004560A0682168854205D2206BBDE87040AF
:101D8000091D00F00DBDE06A091D00F009FD606A43
:101D9000854200D2656270BD6248816A491C8162D9
:101DA000704770B5020022D05E4CA06A38B1502056
:101DB00080F31188BFF34F8FBFF36F8FFEE7FFF7FC
:101DC000EBFFA06885182068001D00F001FD38B900
:101DD000206890F82C1001208840E1688143E16080
:101DE0002846FFF7C1FFFFF763FF002807D14F49DF
:101DF0004FF080500860BFF34F8FBFF36F8F70BDFF
:101E00004848816A11B101218161704700218161D7
:101E1000C168B1FA81F1C1F11F0101EB81024249B0
:101E200051F822306BB101EB820101F108034A68DD
:101E300052684A609A4201D152684A60D168016092
:101E40007047502080F31188BFF34F8FBFF36F8F1F
:101E5000FEE770B5044600F0FCFD324D04B92C6875
:101E6000201D00F0B5FC58B9E06A2F4A00EB800154
:101E700052F8211021B901218140E8688843E860C7
:101E8000A06A18B104F1180000F0A2FC2648211D38
:101E90008C3000F079FC00F0F8FD28688442286955
:101EA0001FD190B1A86A38B1502080F31188BFF3D8
:101EB0004F8FBFF36F8FFEE71C494FF080500860D3
:101EC000BFF34F8FBFF36F8F70BD174869688C30B9
:101ED0000068884202D10020286070BDBDE87040D3
:101EE0008EE70028F9D000F0B4FD00F02BFCBDE82F
:101EF000704000F0CABD002158B10B4B42698C33D1
:101F00009A4216D1806AA3F11402904211D078B19E
:101F10000FE0502080F31188BFF34F8FBFF36F8F16
:101F2000FEE70000600800200009002004ED00E04A
:101F300001210846704770B504000BD0FE4D28689B
:101F4000844231D000F085FD2046FFF7D4FF012800
:101F500008D025E0502080F31188BFF34F8FBFF3E6
:101F60006F8FFEE7201D00F033FCE06A0121EA6874
:101F700081401143E960F14900EB800001EB8000F2
:101F8000211D00F001FCE06A2968C96A884207D374
:101F9000EB494FF080500860BFF34F8FBFF36F8F56
:101FA000BDE8704000F071BD70BD2DE9F041002723
:101FB000040010D000F0F1FD5020EFF3118580F304
:101FC0001188BFF34F8FBFF36F8F2046FFF793FF4A
:101FD000012808D026E0502080F31188BFF34F8FEE
:101FE000BFF36F8FFEE7D44EB06A20B1D34804F13F
:101FF0001801783014E0E06A3168C96A884200D379
:102000000127201D00F0E4FBE16A0120F26888400E
:102010001043F06001EB8100C84901EB8000211DF5
:1020200000F0B2FB85F311883846EDE5C24801683F
:10203000C96A09B100207047C04909680129F9D867
:10204000416A8068081A7047BC4DBD4FBA4C4FF0CA
:1020500080562868012804D93E60BFF34F8FBFF334
:102060006F8FFFF7E3FF0228F3D3FFF795FE606A57
:10207000A168884207D2502080F31188BFF34F8FA8
:10208000BFF36F8FFEE7FFF7D1FF022801D300F007
:1020900021FDFFF70DFEDCE71FB50024009401943D
:1020A000029423468022A7A1A8480394FFF7D6FCF8
:1020B000012809D0002816D1502080F31188BFF3E1
:1020C0004F8FBFF36F8FFEE7502080F31188BFF36F
:1020D0004F8FBFF36F8F9848012101618460BDE885
:1020E0001F4000F042BC1FBD502080F31188BFF399
:1020F0004F8FBFF36F8F90490020086100F09BBCA9
:102100008D488068704710B500F047FD8A488068A8
:1021100010BD89484068704787498A684B6A024405
:102120009A4207D9502080F31188BFF34F8FBFF335
:102130006F8FFEE78A6810448860704770B50D465F
:1021400050B17D4C2168183100F02AFB2068001D39
:1021500000F03EFB40B10FE0502080F31188BFF348
:102160004F8FBFF36F8FFEE7206890F82C1001208F
:102170008840E1688143E160681C04D0A06828447D
:10218000BDE87040F0E521686C48BDE870408C30D7
:10219000091D00F0F9BA70B5154680B1664CA26A07
:1021A000AAB1226841F0004191612168183100F024
:1021B000EBFA2068001D00F00BFB80B117E0502007
:1021C00080F31188BFF34F8FBFF36F8FFEE750206E
:1021D00080F31188BFF34F8FBFF36F8FFEE7206846
:1021E00090F82C1001208840E1688143E160681C70
:1021F00004D0A0682844BDE87040B5E521684F4888
:10220000BDE870408C30091D00F0BEBA2DE9F041E8
:10221000C068C468B4B104F11800074600F0D8FAE9
:10222000454DA86A0126A8B14448394610F1780006
:1022300000F0AAFAE06A2968C96A88421AD901241A
:10224000AE6118E0502080F31188BFF34F8FBFF3C9
:102250006F8FFEE7201D00F0BBFAE16AEA6806FA1C
:1022600001F01043E86001EB8100344901EB80008C
:10227000211DDDE7002400F065FA2046C4E470B5B6
:102280002D4EB26A02B341F000410160C4681CB334
:1022900000F09EFA201D00F09BFAE16A0125F26829
:1022A00005FA01F01043F06001EB8100234901EBD6
:1022B0008000211D00F068FAE06A3168C96A88422E
:1022C00012D90120B56170BD502080F31188BFF391
:1022D0004F8FBFF36F8FFEE7502080F31188BFF35D
:1022E0004F8FBFF36F8FFEE7002070BD28B11249FA
:1022F000CA690260896841607047502080F3118884
:10230000BFF34F8FBFF36F8FFEE770B50D4604002C
:1023100026D06DB300F09DFB074A91682868431CE6
:102320001CD02368D269934202D062688A4227D9BE
:102330006268891A81420BE06008002000090020D1
:1023400004ED00E049444C4500000000492000082D
:1023500016D2401A28602046FFF7C8FF002410E07C
:10236000502080F31188BFF34F8FBFF36F8FFEE7CC
:10237000502080F31188BFF34F8FBFF36F8FFEE7BC
:10238000012400F082FB204670BDF54901208861E0
:102390007047F4490120096809B100207047F049ED
:1023A0008A69002AF9D1EF4A496814321268491E35
:1023B0008A42F3D102207047E94908680A688069B7
:1023C000D26A0968C2F104028A6170472DE9F041BE
:1023D0000D46074600F03DFBE14C2068406CF8B923
:1023E0002068012680F84860D5B12068001D00F003
:1023F000EFF930B9206890F82C008640E068B043CF
:10240000E060681C18D0A0682844FFF7ADFC00BF4E
:10241000D5494FF080500860BFF34F8FBFF36F8FE7
:1024200000F033FB00F015FB2068456C00216DB116
:10243000206847B1416409E02168CA48091D143089
:1024400000F0A2F9E4E7426C521E4264206880F872
:10245000481000F01AFB2846E7E52DE9F0411D463B
:1024600016468846074600F0F4FABD4C206890F8FE
:102470004800022822D02068416CB943416420689A
:10248000012780F84870CDB12068001D00F0A0F948
:1024900030B9206890F82C008740E068B843E060CD
:1024A000681C26D0A0682844FFF75EFCAE494FF0B8
:1024B00080500860BFF34F8FBFF36F8F00F0E5FAD5
:1024C00000F0C7FA16B12068406C3060206890F8C0
:1024D0004800012814D02068416C21EA08014164B9
:1024E00001252168002081F8480000F0CEFA284636
:1024F0009BE521689B48091D143000F045F9D5E79C
:102500000025EEE72DE9F0411F4690460D460126D5
:1025100090B1044600F09DFA0FB1606C386094F8F9
:102520004800022184F84810B8F1050F16D2DFE800
:1025300008F0150B0E141200502080F31188BFF321
:102540004F8FBFF36F8FFEE7616C294301E0616C31
:10255000491C616402E0022803D06564012802D0AE
:102560002BE0002629E0201D00F032F97C4DE06AC6
:102570000121EA6881401143E9607A4900EB80005B
:10258000783901EB8000211D00F0FEF8A06A38B117
:10259000502080F31188BFF34F8FBFF36F8FFEE79A
:1025A000E06A2968C96A884207D96F494FF08050AC
:1025B0000860BFF34F8FBFF36F8F00F066FA3046AD
:1025C00033E52DE9F047984691460E4604004FF05A
:1025D000010717D000F0E1FA5020EFF3118580F3E6
:1025E0001188BFF34F8FBFF36F8F94F8480002211B
:1025F00084F84810B9F1050F16D2DFE809F0150B81
:102600000E141200502080F31188BFF34F8FBFF3D8
:102610006F8FFEE7616C314301E0616C491C6164BE
:1026200002E0022803D06664012802D020E00027DF
:102630001EE0A06A38B1502080F31188BFF34F8F9D
:10264000BFF36F8FFEE7464EB06A4FF00109A0B1AD
:10265000444804F1180100BF00F096F8E06A3168C0
:10266000C96A884204D9B8F1000F01D0C8F80090B7
:1026700085F311883846BDE8F087201D00F0A8F8E2
:10268000E06AF26809FA00F11143F160354900EBA4
:102690008000783901EB8000211DDDE72DE9F04154
:1026A0000E46040015D000F078FA5020EFF31185A3
:1026B00080F31188BFF34F8FBFF36F8F94F84800FA
:1026C000022184F84810616C491C6164012808D01B
:1026D00024E0502080F31188BFF34F8FBFF36F8F3A
:1026E000FEE7A06A38B1502080F31188BFF34F8F06
:1026F000BFF36F8FFEE71A4FB86A4FF0010880B141
:10270000184804F1180100BF00F03EF8E06A39688B
:10271000C96A884202D90EB1C6F8008085F31188D3
:1027200083E4201D00F054F8E06AFA6808FA00F12A
:102730001143F9600B4900EB8000783901EB800010
:10274000211DE1E70648C16A096829B1C16AC96863
:10275000C9684968416270474FF0FF31FAE70000ED
:10276000600800207809002004ED00E000F1080175
:102770004FF0FF32C0E90112C16001610021016028
:10278000704700210161704742684A6093688B601E
:1027900093685960916008610168491C0160704745
:1027A00030B50B685A1C02D000F1080202E0026941
:1027B00004E02246546825689D42FAD953684B606C
:1027C00099608A60516008610168491C016030BDF0
:1027D000D0E9013201699A60D0E901235A604A6860
:1027E000824201D182684A60002202610868401E6C
:1027F000086070472DE9F04104460025FFF7CCFA48
:10280000374A02F10801506801F1080368B93548F8
:10281000002720F00700C1E9000748F6F836C3E9B1
:102820000076C0E900360120506048F6F73094B3D6
:102830000834660704D004F00706C6F108063444DD
:10284000661E864227D226480968083001E00846FD
:1028500031464E68A64202D20E68002EF7D1994248
:1028600019D005680B68036048680835001B1028FC
:102870000DD90B1958601A484C6008305E6800E0AA
:10288000204604686768B742FAD31C600360486852
:102890001168081A1060FFF70BFA2846BDE8F081AE
:1028A00010B5002817D0A0F10804FFF775FA0C48FE
:1028B0006168083000E01046026853688B42FAD322
:1028C0002260046006486168026811440160BDE846
:1028D0001040FFF7EDB910BD014800687047704720
:1028E00094080020A8090020BF484068401C4FF011
:1028F000500080F3118804D0BFF34F8FBFF36F8F68
:10290000FEE7BFF34F8FBFF36F8FFEE710B5031FD6
:102910004FF080741C601B1F1960191FB34B0B60B4
:1029200014390A60091F6FF0020244380A6010BDB2
:10293000AF4810B501684FF47A72B1FBF2F3AA48C0
:102940006FF07F448360B4FBF3F3C360B1FBF1F33A
:102950002D24B4FBF3F3B1FBF2F103614FF0E0205F
:10296000491E41610321016110BD1CB5A1480168E8
:10297000A14A914207D1502080F31188BFF34F8FB5
:10298000BFF36F8FFEE700689B49491E884207D15D
:10299000502080F31188BFF34F8FBFF36F8FFEE796
:1029A000964908780190FF20087008788DF800009B
:1029B0009DF800009DF8002000F0F000904207D044
:1029C000502080F31188BFF34F8FBFF36F8FFEE766
:1029D0009DF80000844C00F05000207007206061DA
:1029E00006E000BF9DF8002052008DF80020401E38
:1029F0009DF800201206F5D4000200F4E06060614A
:102A0000019808707B482030016841F47001016032
:102A1000016841F070410160FFF78AFF00206060AB
:102A2000FDF742FC7648016841F040410160FDF746
:102A30002BFC00201CBD6C484068B0F57A7F07D0A5
:102A4000502080F31188BFF34F8FBFF36F8FFEE7E5
:102A50007047502080F31188BFF34F8FBFF36F8F03
:102A600061494868401C486001280DD16148001D3B
:102A7000006810F0FF0F07D0502080F31188BFF3DB
:102A80004F8FBFF36F8FFEE770475749486828B1F3
:102A9000401E486001D180F311887047502080F3B8
:102AA0001188BFF34F8FBFF36F8FFEE710B5502033
:102AB00080F31188BFF34F8FBFF36F8FFFF797F845
:102AC00020B14C494FF08050091D0860002080F370
:102AD000118810BD2DE9F041434E0546F06885424E
:102AE00000D905464FF0E024206920F00100206164
:102AF000A169B268681E02FB00173069874200D9DD
:102B00003F1A72B6FFF745FC08B367610021A16167
:102B1000206940F00100206125B1BFF34F8F30BF25
:102B2000BFF36F8F206920F00102226162B6C003FB
:102B300019D5A069B268381A101A3369401E984234
:102B400001D3904200D9501E60616D1E15E0A0694E
:102B50006061206940F001002061B068401E606142
:102B600062B6BDE8F081B068A2694543AA1AB2FB1B
:102B7000F0F56B1C4343981A6061A161FFF769FF90
:102B8000206940F0010020612846FFF7C5FAB068CF
:102B9000401E6061BDE8F04177E710B5FDF7BCFB72
:102BA000114910280ED300F1E02090F8F0030A78C4
:102BB000904207D2502080F31188BFF34F8FBFF3AC
:102BC0006F8FFEE70B480C300068496900F4E06045
:102BD000884207D9502080F31188BFF34F8FBFF38D
:102BE0006F8FFEE710BD0000AC080020E928000848
:102BF0000000002000ED00E071C20F4100E400E0A1
:102C000034EF00E02849084328490860704730B590
:102C10000F22C47801780123FCB1244C246801F10F
:102C2000E02104F4E064C4F5E064C4F30724C4F1D3
:102C30000405E2404478AC408578154025432A01DC
:102C400081F80024007800F01F018B4040098000CB
:102C500000F1E020C0F8003130BD01F01F008340DA
:102C60004809800000F1E020C0F8803130BD104AF2
:102C7000114001430D48001F016070470B4A121DAF
:102C80000029116801D0014300E0814311607047C1
:102C90004FF0E0210428086903D020F00400086107
:102CA000704740F00400FAE70000FA050CED00E080
:102CB00080FFFF1FF848016841F001010160F64AFA
:102CC0000021083211600268F44B1A400260031DB3
:102CD000F34A1A60F04BF34A84331A60F04A103A10
:102CE0001B1D1A60026822F480220260EA480C3040
:102CF0000160181D01607047E7490022891C0A70B5
:102D00000870704702460020510901290CD00229A1
:102D10000CD0E1497431096802F01F02012393408D
:102D20000B4200D001207047DB49F4E7DA497031EB
:102D3000F1E718B500204FF4A04400903120FFF7D0
:102D4000E1FF0099491C0091A14201D00028F5D073
:102D50003120FFF7D7FF002800D0012018BDCE4951
:102D60000A6822F0F80242EAC00008607047CE49C3
:102D700008607047C849002270310A700A70012843
:102D800002D0042801D1052008707047C7490860A7
:102D9000704741EA82115A0810B5C54B029C03EBFB
:102DA00002421143014341EA0460BB49091D086026
:102DB00010BDBD4908667047800140EA0170B64900
:102DC000843108607047B84988667047800140EADE
:102DD0000160B14940EA0270883108607047B24929
:102DE00008677047B049C8647047AB4A0832136837
:102DF000084323F0EC63184310607047A64A08327A
:102E00001368084323F07843184310607047A24AC0
:102E10000832116821F003010143116070479E4898
:102E20000830006800F00C0070479B4A08321168B7
:102E300021F0F001014311607047974A0832116890
:102E400021F4E051014311607047934908310A6849
:102E500022F4604242EAC0000860704770B58E4AB2
:102E600008321168934C11F00C0104D0661004294B
:102E700003D0082903D004601BE0066019E08649EE
:102E8000091D0B68C3F380550B6803F03F0315B1B0
:102E9000B6FBF3F301E0B4FBF3F30C680968C4F389
:102EA00088146343C1F30141491C4900B3FBF1F1AC
:102EB000016011680F2303EA11117F4B5C5C01680C
:102EC000E14041601468072505EA94241C5D21FA5D
:102ED00004F48460126805EA52329A5CD140C16001
:102EE00070BDC0F30121032908D16B4A0832116873
:102EF00021F4F8137149014019431160664970319A
:102F00000A68C0F30B0002430A60704767494439FE
:102F10000860704765494039086070476249C1F8E8
:102F20005C0170475C4A8C32116821F44011014306
:102F300011607047584A8C32116821F440010143F6
:102F400011607047544A8C321168401E21F01F01F5
:102F500001431160704750498C310A686FF0FF03DC
:102F600022F4F85203EB00201043086070474A4AED
:102F70008C32116821F4403101431160704750498F
:102F8000C1F8E0017047444A30320029116801D08D
:102F9000014300E08143116070473F4A3432002909
:102FA000116801D0014300E08143116070473A4A43
:102FB00038320029116801D0014300E081431160DB
:102FC0007047354A40320029116801D0014300E0C2
:102FD000814311607047304A44320029116801D0A2
:102FE000014300E08143116070472B4A10320029F1
:102FF000116801D0014300E0814311607047264A07
:1030000014320029116801D0014300E081431160AE
:103010007047214A18320029116801D0014300E0AD
:103020008143116070471C4A20320029116801D089
:10303000014300E0814311607047174A24320029A0
:10304000116801D0014300E0814311607047124ACA
:1030500050320029116801D0014300E08143116022
:1030600070470D4A54320029116801D0014300E035
:10307000814311607047084A58320029116801D015
:10308000014300E0814311607047034A6032002928
:10309000116817D0014316E000380240FFFFF6EA3E
:1030A000103000240030002000004742800E4742CC
:1030B0000000FFFF0024F400C4080020FFFCFF0F05
:1030C00000104742814311607047194A0029116876
:1030D00001D0014300E081431160704714490C3175
:1030E0000128086803D020F008000860704740F00D
:1030F0000800FAE70E4A573A0029117801D0014337
:1031000000E081431170704709481030016841F0B8
:103110008071016070470146054A0020583A1268E4
:103120000A4200D0012070470149563908707047A3
:1031300064380240824910B5884206D10121084610
:10314000FFF753FF002101205BE07E49884206D152
:1031500001210220FFF749FF0021022051E07A49B6
:10316000884206D101210420FFF73FFF00210420FF
:1031700047E07649884206D101210820FFF735FF54
:10318000002108203DE07249884206D1012110202B
:10319000FFF72BFF0021102033E06E49884206D153
:1031A00001212020FFF721FF0021202029E06A498A
:1031B000884206D101214020FFF717FF002140205F
:1031C0001FE06649884206D101218020FFF70DFFEC
:1031D0000021802015E06249884202D10121841536
:1031E0000AE06049884202D10121441504E05E49A9
:1031F00088420AD1012104152046FFF7F6FE00217E
:103200002046BDE81040FFF7F0BE10BDF0B500232A
:10321000012403270D6804FA03F21540954242D1B8
:10322000D0F800C05E0007FA06F52CEA050CC0F8DD
:1032300000C091F804C0D0F800E00CFA06FC4CEA9B
:103240000E0CC0F800C091F804C0BCF1010F02D010
:10325000BCF1020F1FD1D0F808C02CEA050CC0F851
:1032600008C091F805C0D0F808E00CFA06FC4CEA5A
:103270000E0CC0F808C0D0F804C02CEA020CC0F84C
:1032800004C0426891F806C00CFA03FC1FFA8CFCDB
:1032900042EA0C024260C268AA43C260CA79C568A9
:1032A000B2402A43C2605B1C102BB3D3F0BD4FF673
:1032B000FF7101600021017141718171C17170471D
:1032C00008B541F480320092C261C1610099C161C8
:1032D000C169C069009008BD0246002012690A4217
:1032E00000D001207047006980B27047024600207C
:1032F00052690A4200D001207047406980B270478D
:1033000001837047418370470AB10183704741834D
:1033100070474161704742694A40426170474B07BC
:10332000DB0E9A40C90810B500EB8100016A0F243A
:103330009C40A1430162016A1143016210BD00007B
:10334000000002400004024000080240000C02405D
:10335000001002400014024000180240001C02400D
:10336000002002400024024000280240C14910B55C
:10337000884202D10121841424E0BF49884202D14D
:103380000121041404E0BD4988420AD10121C4137B
:103390002046FFF748FE2046BDE810400021FFF719
:1033A00042BEB749884202D1012144140AE0B5491E
:1033B000884202D101210C0504E0B34988420AD1B8
:1033C00001214C052046FFF738FE2046BDE810409D
:1033D0000021FFF732BE10BD30B502884C8802F4E0
:1033E00041530A88CD8822438C882C4322430C8980
:1033F00022434C8922438C892243CC8922431A439D
:103400000280828B22F400628283098A018230BDAD
:10341000F0B502220023858B01244FF2400635408F
:1034200085830284858B8E68022E42D08A8802B101
:103430000224964A13681B0203D5136823F4000381
:103440001360924A7C3213681268C3F388168F4F58
:10345000C2F302733F1F3A683F6802F03F027F02E7
:1034600001D58B4F00E08B4FB7FBF2F27243B2FBFA
:10347000F3F2CB88B3F5007F2BD06301B2FBF3F2FC
:1034800002EB82028B685200B2FBF3F2521D92B241
:103490000A23B2FBF3F202F00103D21A4FF6FF74D3
:1034A000C2F34F0204EA0323941EFE2C01D302222E
:1034B0000023CC881A43144304840A884B881A4397
:1034C0008B8889890B431A432A4342F40061818324
:1034D000F0BD120AD4E70021018041808180C180C3
:1034E000018141818181C1810721018270470021D1
:1034F000018041808180C180022282608181704789
:103500000029018802D041F0400101E021F0400192
:10351000018070470029818B02D041F4806101E075
:1035200021F4806181837047028822F40062028066
:1035300002880A4302807047B1F5804F018803D0AA
:1035400021F480410180704741F48041FAE7A1F500
:103550007E420188FF3A02D041F4807101E021F4FB
:103560008071018070470029818802D041F00401F8
:1035700001E021F00401818070470029818802D098
:1035800041F0100101E021F010018180704730B559
:10359000838B00224FF24004234083830223038461
:1035A000848B0B884FF48075B3F5007F00D003B98E
:1035B0002A464B888D8889892B4311430B4323432B
:1035C00043F40061818330BD8089704781817047F9
:1035D0000029018802D041F4005101E021F400519A
:1035E00001807047018841F48051018070470129B2
:1035F00001D0008B7047808A7047008A7047002A8C
:10360000828801D00A4300E08A438280704709091A
:1036100001238B40002A828899B201D00A4300E03E
:103620008A43828070470246002012890A4200D0F5
:1036300001207047C9430181704710B501F00F04A4
:103640000122034602FA04F4002009098A4091B2DB
:103650009A88A4B20A401989214202D0002A00D0D7
:10366000012010BD01F00F0201219140C9430181E9
:10367000704700000030014000380040003C00402E
:10368000003401400050014000540140083802401D
:1036900000127A000024F400CF4910B5884206D108
:1036A00001211020FFF7C9FC0021102020E0CB49A8
:1036B000884202D101214C0429E0C949884202D143
:1036C00001218C0423E0C749884202D10121CC04A6
:1036D0001DE0C549884202D101210C0517E0C3490C
:1036E000884209D101212020FFF7A7FC00212020DA
:1036F000BDE81040FFF7A1BCBD49884202D10121BD
:103700008C0704E0BB4988420AD1012144052046C8
:10371000FFF789FC2046BDE810400021FFF783BC7D
:1037200010BD7FB50446008A0D4620F44051E8885C
:1037300008432082A08941F20C618843A9882A8924
:1037400011436A8902431143A181A08A20F4407188
:10375000A8890843A0826846FFF780FB9E48844200
:1037600002D0A248844201D1039800E00298A189C6
:10377000090400EBC00101EB0010296801D54900E4
:1037800000E08900B0FBF1F26420B2FBF0F1090126
:103790000B096FF018056B4302EB8302A3891D042C
:1037A0004FF0320306D503EBC202B2FBF0F000F09B
:1037B000070005E003EB0212B2FBF0F000F00F008F
:1037C000084320817FBD4FF41651016000218180A4
:1037D000C18001810C2242818181704710B5028A2B
:1037E0004C8822F470630A8822438C88C9880C4371
:1037F00022431A43028210BD002101804180818052
:10380000C18070470029818902D041F4005101E054
:1038100021F4005181817047028B02F47F420283C0
:10382000028B0A43028370470029818902D041F448
:10383000004101E0C1F30E01818170470029818AB6
:1038400002D041F4006101E021F4006181827047FF
:10385000C1F30801818070478088C0F30800704779
:10386000028A22F00F020282028A0A430282704711
:103870000029818902D041F0020101E021F002011A
:1038800081817047828922F40062828182890A43A1
:1038900082817047028A22F020020282028A0A4351
:1038A000028270470029018A02D041F4804101E080
:1038B00021F4804101827047818941F001018181B9
:1038C00070470029818A02D041F0080101E021F00F
:1038D000080181827047028BD2B20283028B42EAD6
:1038E0000121018370470029818A02D041F0200123
:1038F00001E021F02001818270470029818A02D0F5
:1039000041F0100101E021F0100181827047828AAC
:1039100022F004028282828A0A438282704700294E
:10392000818A02D041F0020101E021F0020181828E
:103930007047002A828A01D00A4300E08A438282CB
:10394000704710B5C1F3421301F01F040121A140DB
:10395000012B07D0022B07D01430002A026805D0B3
:103960000A4304E00C30F8E71030F6E78A430260BF
:1039700010BD0246002012880A4200D00120704784
:10398000C9430180704730B501F01F0201240025B2
:10399000C1F3421304FA02F2012B0FD0022B0FD015
:1039A000838A4FEA11210088134204FA01F400EAE5
:1039B000040001D000B10125284630BD8389F0E71D
:1039C000038AEEE70A0A01219140C943018070474A
:1039D0000149888070470000001001400044004009
:1039E00000480040004C00400050004000140140DE
:1039F00000780040007C0040354900200860091D27
:103A00000860091D0860091D0860314931481431FA
:103A10000860704730B52E498379026853B30B684C
:103A200093430B600A1D13680468A3431360027973
:103A30000A441368046823431360254A0832136854
:103A40000468A3431360131D1C680568AC431C6025
:103A50004479102C05D021440A68006802430A60AA
:103A600030BD116804682143116019680068014382
:103A7000196030BD0079084401689143016030BD90
:103A80000021016001710C2242718171704710495F
:103A900010310A6802430A60704701460C4A002050
:103AA000143212680A4200D00120704708491431CC
:103AB000086070470146064A0020143212680A4224
:103AC00000D001207047024914310860704700009F
:103AD000003C0140FFFF7F0010B501218C03204610
:103AE000FFF7ABFA2046BDE810400021FFF7A5BA6A
:103AF00014490860704714490862704710B58A0776
:103B000021F003041149130F21440F22D1F8084872
:103B10009A409443C1F80848D1F8082898400243D5
:103B2000C1F8082810BD0849C1F8DC0070470849F1
:103B3000086070470349002020310968C90500D595
:103B4000012070470038014000002742003001404A
:103B5000000427422DE9FC41044690F808054FF681
:103B6000FF76002520B13046FCF7FDFE84F80855AD
:103B700094F80A0530B300212823F0220846009665
:103B8000FDF7BEF9CDE90056A04BA14A0A21052058
:103B9000FDF7FCF8CDE900569C4B0A210520626830
:103BA000FDF7F4F82723F022194600200095FDF7D1
:103BB00026F92823F022194600200095FDF71FF969
:103BC00084F80A5594F809054FF0320838B327787D
:103BD00020E000BFCDE9005620788C4B381A00EB6E
:103BE000800108EBC10081B2894A0520FDF7CEF8BB
:103BF000CDE9005604EB8700844B42682078381AE0
:103C000000EB800108EBC10081B20520FDF7BEF892
:103C10007F1CFFB26078B842DCD284F8095594F872
:103C20000B05002824D0CDE90056E07821784746DE
:103C3000411A04EB800001EB810108EBC1014268ED
:103C400089B2724B0520FDF7A1F8CDE90065A07897
:103C500021786E4B411A04EB800001EB810107EBE8
:103C6000C101426889B20520FDF790F884F80B5530
:103C7000BDE8FC8130B590F894308B704A7801240F
:103C8000934209D9057EAA4206D2521C4A700A788C
:103C9000521C0A7081F809450A78934208D24B7881
:103CA000012B05D95B1E4B70521E0A7081F8094525
:103CB000D2B207E000EB820301EB82049B69521C45
:103CC00092B263604B789342F4D230BD30B5012399
:103CD0000B70027E072A00D307224A7090F89420C6
:103CE0008A7090F89420CA700022486008E000BFF3
:103CF00000EB820401EB8205E469521CD2B2AC6095
:103D00004C789442F4D881F8083581F8093581F867
:103D10000A3581F80B3530BD70B50446C669007EA2
:103D2000ADF5A26D012538B184F89450694620465E
:103D3000FFF7CCFF207E20B9606980470DF5A26DAA
:103D400070BD69462046FFF795FF6846FFF702FF02
:103D5000732000F0F1FA00B394F894008DF803009A
:103D600094F89400401CC0B284F89400217E8842EC
:103D700005D9401E84F89400401E8DF803008DF88C
:103D80000B5569462046FFF775FF94F8940004EB45
:103D9000800086696846FFF7DDFE772000F0CCFAE8
:103DA000F0B194F894008DF8030094F89400401E4C
:103DB00010F0FF0084F8940004D184F8945002209D
:103DC0008DF803008DF80B5569462046FFF752FF2A
:103DD00094F8940004EB800086696846FFF7BAFE09
:103DE000612000F0A9FA0028A8D1642000F0A4FA0C
:103DF0000028A6D08DF808558DF809558DF80A557C
:103E00008DF80B553046FFF787FF9AE758080020DA
:103E1000D40800201CB5F5A1F848FCF71AFCF84CB2
:103E2000207868B9012000F09DFA002000F09AFA8D
:103E3000022000F097FA032000F094FA012020708D
:103E40004FF6FF70FCF78FFD4FF000410020CDE9E9
:103E50000001EC4BECA20A21FCF798FF312000F0A6
:103E60006BFA10B1012000F0AEFA322000F064FAD3
:103E700010B1002000F0A7FA332000F05DFA10B175
:103E8000022000F0A0FA342000F056FA10B103200E
:103E900000F099FA612000F04FFA0028DED01CBD36
:103EA0002DE9FC473E240020FCF75DFDA6074FF6F8
:103EB000FF75CDE90056E04BE0A232210A20FCF765
:103EC00065FF04E0612000F037FA00283DD164204E
:103ED00000F032FA0028F5D00020FCF744FD7323EF
:103EE0004FF4827264213C200095FCF7E7FFCDE996
:103EF0000056D14BDCA278214620FCF747FF4FF457
:103F0000784840F2DC574FF48179A2B271236621E0
:103F10003E20CDF80080FCF7F3FF0020241D00BFF9
:103F2000401CB842FBDB4C45EFDB0020FCF71BFDDF
:103F3000CDE90056C04BD3A278214B20FCF726FFD9
:103F4000612000F0F9F90028FAD0BDE8FC872DE9DE
:103F5000F05F1E4692468B468146002527E000BF53
:103F6000AAF1200111FB0050726800240BEB050838
:103F700032F8107017E000BF07FA04F0000406D50D
:103F800009EB04001FFA88F180B20A9A08E00B9846
:103F9000002807DB09EB04001FFA88F180B20B9AB6
:103FA000FCF76BFE641C3078A042E5D86D1C70787D
:103FB000A842D5D8BDE8F09F2DE9F04FADF57D7D45
:103FC0001D20FA90002022258046F9908146FB9022
:103FD000FCF7C9FCA9074FF4FC60CDE90001964B42
:103FE000AE4A0F211920FCF7D1FE04E01B2000F09F
:103FF000A3F900287ED10D2000F09EF90028F5D00D
:104000000020FCF7B0FC0DF1080B4FF0000AA448AB
:1040100000780028FBD100F09AF904460D281FD043
:104020001B2C67D04FF4FC61CDE9001A824B22466D
:104030004146F998FFF78BFFFB9800EB4001C1EB7D
:104040004011594401F80940F998C01D80B2F99017
:10405000FB98401C80B2FB90F998EE282CD03AE0F7
:1040600090A16648FCF7F5FA20264FF4FC67FB9C0C
:1040700013E000BFCDE9007AC4EBC40080B26E4B00
:1040800020224146FFF763FF04EB4400C0EB4411DC
:104090005944641C01F80960A4B2AC42EAD3002080
:1040A000FB9009F101001FFA80F90020F99008F156
:1040B0000B001FFA80F80EE07DA15048FCF7C9FA0A
:1040C0000020F990FB9008F10B001FFA80F809F12D
:1040D00001001FFA80F9A8F580713F393CD177A122
:1040E0004648FCF7B6FAA8F10B001FFA80F8A9F1D0
:1040F000010000E046E01FFA80F9002404EB4400D0
:10410000002600EBC40700BF06EB4600C0EB4611DB
:1041100001EB0B000119484B4A7802554FF4FC6142
:10412000CDE9001AC6EBC600B9B280B2FFF70FFFA7
:10413000761CB6B2AE42E7D3FA98641CA4B2401E15
:104140008442DBDB08F10B0083B2F0224146002001
:10415000CDF800A0FCF7D4FEF99E4FF4FC6008F106
:1041600009040090F61DA3B2B2B24146F998FCF7DB
:10417000A5FEA3B2B2B24146CDF800A0F998FCF773
:104180009DFE44E70DF57D7DBDE8F08F4FA11B48F6
:10419000FCF75FBA70B586B00020FCF7E4FB4FF087
:1041A00000404FF6FF74CDE900400521154B4CA2AD
:1041B0000846FCF7EBFD3A4D287810B900F0C7F837
:1041C000064602A904A8FCF748FBBDF808002346F0
:1041D00001B2BDF81000324600B2FCF72DFF1B20E3
:1041E00000F0AAF80028E7D006B070BD4C45442086
:1041F00066756E6374696F6E0A0D000000100140F1
:10420000E908002058080020436F6E74726F6C201C
:10421000796F7572204C454473207573696E672001
:104220006E756D6265727320312C20322C20332024
:10423000616E642034000000500800204172652047
:10424000796F75207375726520796F752077616E4F
:104250007420746F2073746172742061706F636175
:104260006C797073653F000041706F63616C7970A9
:10427000736520696E2070726F67726573732E2E7E
:104280002E00000041706F63616C7970736520636C
:104290006F6D706C6574656400000000D85D000887
:1042A000EA08002054752073616D320A0D00000089
:1042B00054752073616D0A0D0000000046756C6C2A
:1042C000207465726D696E616C0000005665727ACB
:1042D000696A612066756E6374696F6E0A0D00000D
:1042E000436F6C6F723A000070B50123002500E047
:1042F0005343B1FBF3F49442FAD20FE0B1FBF3F471
:10430000B1FBF3F603FB1611B3FBF2F3092C01D951
:10431000373400E0303444556D1CEDB2002BEDD144
:104320000021415561E70000017819B100210170B9
:10433000012070470020704709490A782AB94A7855
:10434000824202D101200870704700207047044863
:104350000178002902D101210170407870470000E6
:10436000EA0800201CB504464648012150F8240004
:10437000FEF709FE43480021083830F81400009089
:1043800001208DF804008DF806108DF8070002203A
:104390008DF805003C48694650F82400FEF736FFCA
:1043A0001CBD3849384A083931F8101052F820003D
:1043B000018370473349344A083931F8101052F8F4
:1043C000200041837047304951F820104A692D4B35
:1043D000083B33F8100042404A61704770B504460C
:1043E00028480E460C3886B050F824000121FEF70C
:1043F000CAFD01218803FEF7EEFD224800258DF855
:10440000105010388DF8135030F8140003901E48E7
:1044100003A9001F50F82400FEF7F8FE012E25D155
:1044200018481338015D401E005DFFF767FB154813
:104430000E3830F8140000908DF8045008208DF8E4
:10444000050001258DF806506846FFF7E3FA0D4890
:104450001238005D8DF808000F208DF809008DF8E6
:104460000A008DF80B5002A8FEF7D1FB06B070BD14
:104470000449054A1039121F31F8101052F8200073
:10448000FEF72ABFC85D0008F0080020704770479B
:104490007047754600F028F8AE4605006946534659
:1044A00020F00700854618B020B5FBF747FFBDE8B0
:1044B00020404FF000064FF000074FF000084FF08B
:1044C000000B21F00701AC46ACE8C009ACE8C0091C
:1044D000ACE8C009ACE8C0098D4670470446AFF3AC
:1044E00000802046FBF7B9FE00487047A0950020E9
:1044F00001491820ABBEFEE726000200704700000D
:104500002DE9C04130B4DFF8A0C23CEA111418BF55
:104510003CEA131400F0EC8081EA03051CEA111454
:1045200044EAD57418BF1CEA131500F0C780A4EB49
:1045300005044FF0004545EAC12145EAC32341EA9D
:10454000505143EA525304F17F74994204F5003408
:104550004FEAC0204FEAC22208BF904200F09C8080
:104560004FEA13650FF24016765D4FEA134506FBDE
:1045700005F7C7F1807706FB07F74FEAD737A7FBA8
:1045800003687642C8F58038A7FB06CE38BFA8F18D
:10459000010807FB08E64FF0000EA6FB028CE6FBC5
:1045A00003CEDCF1000CCEF1004E38BFAEF1010EAF
:1045B000A6FB0C584FF000074FF00005E6FB0E87F6
:1045C000A1FB08C6A0FB07CE16EB0E0645F10005C1
:1045D000E1FB076515F1E04E7EBFA4F580345FEA8C
:1045E00046066D4116F1800745F100054FEA172791
:1045F0004FEA066647EA0567A6F1DE46B6F1805F38
:104600004FEA15251FD9384624F0010C05EBC4717B
:10461000BCF1FE6F01EB0C1102D8F0BCBDE80081CB
:1046200024425CBF01F5801E9EEAC47F02D4F0BC28
:10463000BDE80081244238D4F0BCA1F1C041BDE8FE
:10464000004100F047B94FEAD22242EA43524FEA12
:10465000D323A7FB02864FEAD02040EA415007FB54
:1046600003661EEA0E0F4FEAD12105FB026658BF12
:10467000A6EB0056B6EB00564FEA520E4EEAC37E4A
:1046800018EB0E0E56EB530EBDD518EB02085E412B
:104690007F1C55F10005B6E74FF480154FF0000779
:1046A0004FF000064FF00008ADE7F0BC4FF00000FF
:1046B00001F1C04101F00041BDE8008111EA0C1F89
:1046C0000CEA131500D00CE013EA0C1F00F0258053
:1046D0004FF00000F0BC81EA030101F00041BDE8A9
:1046E0000081F0BCBDE8004181EA030100F0F2B8AE
:1046F000F0BCBDE8004170B500F09EF8097EFC3EBC
:1047000000F007B881EA03014FF0000001F000411A
:10471000704781EA030100F0DDB8F0BCBDE800415C
:104720004FF0000021497047FFFDFBF9F7F5F4F267
:10473000F0EEEDEBE9E8E6E4E3E1E0DEDDDBDAD83C
:10474000D7D5D4D3D1D0CFCDCCCBCAC8C7C6C5C49A
:10475000C2C1C0BFBEBDBCBBBAB9B8B7B6B5B4B3B1
:10476000B2B1B0AFAEADACABAAA9A8A8A7A6A5A49C
:10477000A3A3A2A1A09F9F9E9D9C9C9B9A99999860
:104780009797969595949393929191908F8F8E8E03
:104790008D8C8C8B8B8A8989888887878685858490
:1047A00084838382828181800000FF070000F87F7C
:1047B0004FEA1153A3F58063D3F11E03A8BFD3F1D1
:1047C000200C08DB4FF0004242EAC12252EA50526C
:1047D00032FA03F0704709420BD4102BC4BF0020FB
:1047E000704703F5787CBCF1FF3F05D04FF0FF30F8
:1047F00070474FF00000704770B500F01DF800BF23
:104800004992248000207047F0E710F0004248BF32
:104810004042B0FA80F310FA03F10AD0C3F11D034D
:1048200003F580634FEA415002EB035202EBD121C2
:1048300070474FF0000070470EF1020E2EF0030E8D
:104840005EF8046B364205D4012A43EB030515F5E7
:10485000001F12D8012841EB010C1CF5001F0CD8D9
:104860000ED14FEAD17C15F5001F0CEB4C0C0CF16E
:10487000020C08BF4CEBD37C04E04FF0080C01E0C5
:104880004FEAD37C0CEB4C0526FA05F606F007063A
:10489000B6F1040C06D20EEB860CBDE870404CF06D
:1048A000010C6047DFE80CF0090B02024FF00041F9
:1048B0004FF00000A1F5002170BD194610460128F7
:1048C00051EB010418BFD4F5001484BF002001F09F
:1048D000004170BD0808A0F500114FEA3101704792
:1048E0004FF04070E1EE100A704700000000000039
:1048F00000000000000000000000000000000010A8
:104900000010001000100010001000000010000047
:10491000000000280028002800000000000000001F
:1049200000000000000000240024007C0024004857
:10493000007C00480048000000000038005400508F
:10494000003800140054005400380010000000200B
:1049500000540058003000280054001400080000E3
:104960000000001000280028001000340048004813
:1049700000340000000000100010001000000000D3
:1049800000000000000000000000000800100020EF
:10499000002000200020002000200010000800203F
:1049A00000100008000800080008000800080010B7
:1049B0000020001000380010002800000000000057
:1049C0000000000000000000000000100010007C4B
:1049D00000100010000000000000000000000000B7
:1049E0000000000000000000001000100010000097
:1049F000000000000000000000380000000000007F
:104A000000000000000000000000000000000000A6
:104A10000010000000000008000800100010001046
:104A20000010002000200000000000380044004476
:104A3000005400440044004400380000000000100E
:104A40000030005000100010001000100010000096
:104A5000000000380044004400040008001000205A
:104A6000007C00000000003800440004001800042E
:104A7000000400440038000000000008001800286E
:104A800000280048007C0008000800000000007CAE
:104A9000004000400078000400040044003800009A
:104AA0000000003800440040007800440044004406
:104AB000003800000000007C000400080010001016
:104AC00000200020002000000000003800440044C6
:104AD0000038004400440044003800000000003862
:104AE000004400440044003C00040044003800003E
:104AF00000000000000000100000000000000000A6
:104B00000010000000000000000000000010000085
:104B10000000000000100010001000000000000C59
:104B2000003000400030000C0000000000000000D9
:104B300000000000007C0000007C0000000000007D
:104B40000000000000000060001800040018006071
:104B500000000000000000380044000400080010BD
:104B60000010000000100000000000380044004C5D
:104B70000054005C004000400038000000000010BD
:104B80000028002800280028007C00440044000081
:104B900000000078004400440078004400440044D1
:104BA0000078000000000038004400400040004051
:104BB000004000440038000000000070004800443D
:104BC0000044004400440048007000000000007CE5
:104BD00000400040007C004000400040007C00009D
:104BE0000000007C00400040007800400040004091
:104BF0000040000000000038004400400040005C1D
:104C00000044004400380000000000440044004418
:104C1000007C0044004400440044000000000038D0
:104C200000100010001000100010001000380000EC
:104C30000000000400040004000400040004004418
:104C400000380000000000440048005000600050A0
:104C500000480048004400000000004000400040C0
:104C60000040004000400040007C00000000004484
:104C7000006C006C005400440044004400440000F8
:104C8000000000440064006400540054004C004CD8
:104C90000044000000000038004400440044004488
:104CA0000044004400380000000000780044004444
:104CB0000044007800400040004000000000003840
:104CC0000044004400440044004400540038000400
:104CD0000000007800440044004400780048004888
:104CE000004400000000003800440040003000088C
:104CF00000040044003800000000007C0010001098
:104D0000001000100010001000100000000000440F
:104D100000440044004400440044004400380000C3
:104D2000000000440044004400280028002800102F
:104D300000100000000000440044005400540054DF
:104D4000006C002800280000000000440028002813
:104D5000001000100028002800440000000000445B
:104D6000004400280028001000100010001000006F
:104D70000000007C0004000800100010002000402B
:104D8000007C00000000001800100010001000104F
:104D9000001000100010001000180020002000106B
:104DA0000010001000100008000800000000003093
:104DB0000010001000100010001000100010001073
:104DC000003000100028002800440000000000000F
:104DD00000000000000000000000000000000000D3
:104DE000000000000000000000FE00200010000095
:104DF00000000000000000000000000000000000B3
:104E0000000000380044003C0044004C0034000026
:104E1000000000400040005800640044004400646A
:104E2000005800000000000000000038004400406E
:104E3000004000440038000000000004000400347A
:104E4000004C00440044004C00340000000000000E
:104E5000000000380044007C00400044003800009E
:104E60000000000C0010007C00100010001000106A
:104E7000001000000000000000000034004C00445E
:104E80000044004C0034000400780040004000580A
:104E9000006400440044004400440000000000108E
:104EA0000000007000100010001000100010000042
:104EB0000000001000000070001000100010001032
:104EC0000010001000E0004000400048005000606A
:104ED0000050004800440000000000700010001066
:104EE0000010001000100010001000000000000072
:104EF0000000007800540054005400540054000096
:104F00000000000000000058006400440044004419
:104F1000004400000000000000000038004400448D
:104F20000044004400380000000000000000005869
:104F30000064004400440064005800400040000049
:104F400000000034004C00440044004C00340004D5
:104F500000040000000000580064004000400040D1
:104F60000040000000000000000000380044003055
:104F700000080044003800000000002000200078F5
:104F80000020002000200020001800000000000089
:104F900000000044004400440044004C0034000081
:104FA0000000000000000044004400280028002801
:104FB00000100000000000000000005400540054E5
:104FC000006C0028002800000000000000000044E1
:104FD000002800100010002800440000000000001D
:104FE00000000044004400280028001000100010B9
:104FF000006000000000007C00080010002000405D
:10500000007C0000000000180010001000100020BC
:1050100000200010001000100018001000100010F8
:1050200000100010001000100010001000100030E0
:105030000010001000100008000800100010001000
:1050400000300000000000000074004C0000000070
:105050000000000000000000000000000000000050
:105060000000000000000000000000000000000040
:10507000000000000000000000000000000C000C18
:10508000000C000C000C000C000C000C000C000CC0
:10509000000C0000000C000C0000000000000000EC
:1050A000001B001B001B001B001B00000000000079
:1050B00000000000000000000000000000000000F0
:1050C000000000008019801980198019C07FC07FFE
:1050D00080190033C07FC07F0033003300330033BA
:1050E0000000000000000000001E003F8075806589
:1050F0000074003C001E0007800580658065807597
:10510000003F001E0004000400000000007000D8F2
:1051100040D8C0D880D900730006000C801BC03670
:10512000C066C046C006800300000000000000000A
:10513000001E003F003300330033001E000CC03C53
:10514000C066806380618063C03E801C00000000F8
:1051500000000000000C000C000C000C000C000013
:10516000000000000000000000000000000000003F
:10517000000000000000800000010003000600069F
:105180000004000C000C000C000C000C000C0004CF
:105190000006000600030001800000200010001837
:1051A000000C000C000400060006000600060006C5
:1051B00000060004000C000C001800100020000085
:1051C000000C002D003F001E003300000000000016
:1051D00000000000000000000000000000000000CF
:1051E0000000000000000000000C000C000C000C8F
:1051F000C0FFC0FF000C000C000C000C0000000001
:10520000000000000000000000000000000000009E
:10521000000000000000000000000000000000008E
:10522000000C000C00040004000800000000000056
:10523000000000000000000000000000001E001E32
:10524000000000000000000000000000000000005E
:10525000000000000000000000000000000000004E
:105260000000000000000000000C000C0000000026
:105270000000000000030003000300060006000613
:105280000006000C000C000C000C001800180018A0
:105290000000000000000000001E003F003380619D
:1052A00080618061806D806D80618061806100338C
:1052B000003F001E00000000000000000006000E7D
:1052C000001E003600260006000600060006000646
:1052D00000060006000600060000000000000000B6
:1052E000001E003F80738061806180010003000622
:1052F000000C001800300060807F807F00000000FC
:1053000000000000001C003E006300630003000E6C
:10531000000E00038001800180618073003F001E49
:1053200000000000000000000006000E000E001E3D
:10533000001E0016003600360066807F807F000663
:10534000000600060000000000000000007F007F53
:10535000006000600060006E007F8063800180015B
:1053600080618073003F001E00000000000000000C
:10537000001E003F803380610060006E007F8073FC
:105380008061806180618033003F001E000000006A
:1053900000000000807F807F800100030003000682
:1053A0000006000C000C000C000800180018001883
:1053B0000000000000000000001E003F80638061CC
:1053C00080610021001E003F8061806180618061FA
:1053D000003F001E0000000000000000001E003F13
:1053E00000738061806180618073803F801D8001D7
:1053F00080610073003F001E0000000000000000FC
:105400000000000000000000000C000C0000000084
:105410000000000000000000000C000C0000000074
:105420000000000000000000000000000000000C70
:10543000000C00000000000000000000000C000C48
:1054400000040004000800000000000000008000CC
:105450008003000E003800600038000E80038000DA
:10546000000000000000000000000000000000003C
:1054700000000000807F807F00000000807F807F30
:10548000000000000000000000000000000000001C
:1054900000000000000000400070001C00078001B8
:1054A0000007001C00700040000000000000000029
:1054B00000000000001F803FC071C060C000C0013C
:1054C00080030007000E000C000C0000000C000C14
:1054D0000000000000000000001E003F80318071CD
:1054E0008063806F806D806D806F806700600032A8
:1054F000003E001C0000000000000000000E000E36
:10550000001B001B001B001B80318031803F803F4F
:105510008031C060C060C06000000000000000007A
:10552000007C007E0063006300630063007E007EF9
:105530000063806180618063007F007E0000000066
:1055400000000000001E003F8031806100600060AC
:10555000006000600060006080618031003F001EDC
:105560000000000000000000007C007F00638063FA
:10557000806180618061806180618061006300631F
:10558000007E007C0000000000000000807F807F23
:105590000060006000600060007F007F00600060CD
:1055A00000600060807F807F00000000000000003D
:1055B000807F807F0060006000600060007F007F6F
:1055C000006000600060006000600060000000009B
:1055D00000000000001E003F80318061006000601C
:1055E000006080638063806180618031803F001E45
:1055F0000000000000000000806180618061806127
:1056000080618061807F807F806180618061806156
:10561000806180610000000000000000003F003F4A
:10562000000C000C000C000C000C000C000C000C1A
:10563000000C000C003F003F0000000000000000D4
:105640008001800180018001800180018001800152
:105650008001806180618073003F001E00000000B7
:1056600000000000C0608061006300660066006C9E
:105670000078007C00660066006380618061C06025
:10568000000000000000000000600060006000609A
:10569000006000600060006000600060006000600A
:1056A000807F807F0000000000000000C071C0719A
:1056B000C07BC07AC06AC06AC06EC064C060C0608F
:1056C000C060C060C060C06000000000000000005A
:1056D00080718071807980798079806D806D806D36
:1056E000806580678067806780638063000000005A
:1056F00000000000001E003F003380618061806177
:10570000806180618061806180610033003F001EA4
:105710000000000000000000007E007F80638061C8
:10572000806180618063007F007E006000600060B7
:10573000006000600000000000000000001E003F4C
:1057400000338061806180618061806180618065FB
:1057500080670033803F401E000000000000000012
:10576000007E007F8063806180618063007F007EB7
:1057700000660063006380618061C060000000001B
:1057800000000000000E001F803180310030003822
:10579000001E00078003806180618031003F001E91
:1057A0000000000000000000C0FFC0FF000C000C63
:1057B000000C000C000C000C000C000C000C000C89
:1057C000000C000C000000000000000080618061FF
:1057D00080618061806180618061806180618061C1
:1057E00080618073003F001E000000000000000088
:1057F000C060C060C060803180318031001B001B00
:10580000001B001B000E000E000E00040000000034
:1058100000000000C0C0C0C0C0C0C0C0C0C0C0CC7C
:10582000804C804C805E80528052807380618061A9
:105830000000000000000000C0C0806080610033F4
:10584000003B001E000C000C001E001F003B80717E
:105850008061C0C00000000000000000C0C0806186
:10586000806100330033001E001E000C000C000C91
:10587000000C000C000C000C0000000000000000F8
:10588000803F803F8001000300030006000C000CF5
:105890000018001800300060807F807F000000004A
:1058A0000000000F000F000C000C000C000C000C9E
:1058B000000C000C000C000C000C000C000C000C88
:1058C000000C000F000F0000001800180018000C5A
:1058D000000C000C000C0006000600060006000389
:1058E00000030003000000000000001E001E000670
:1058F0000006000600060006000600060006000678
:1059000000060006000600060006001E001E00003D
:10591000000C000C001E0012003300338061806117
:105920000000000000000000000000000000000077
:105930000000000000000000000000000000000067
:105940000000000000000000000000000000000057
:105950000000E0FF0000000000380018000C00000C
:105960000000000000000000000000000000000037
:105970000000000000000000000000000000000027
:1059800000000000001F803F80618001801F803F79
:1059900080618063807FC03800000000000000004C
:1059A0000060006000600060006E007F80738061B6
:1059B0008061806180618073007F006E0000000064
:1059C000000000000000000000000000001E003F7A
:1059D000807380610060006080618073003F001E02
:1059E00000000000000000008001800180018001B3
:1059F000801D803F807380618061806180618073E1
:105A0000803F801D0000000000000000000000003A
:105A100000000000001E003F00738061807F807FD7
:105A200000608071003F001E0000000000000000C8
:105A3000C007C00F000C000C807F807F000C000CA2
:105A4000000C000C000C000C000C000C000000000E
:105A500000000000000000000000801D803F8073F7
:105A600080618061806180618073803F801D8001E2
:105A70008063007F003E0000006000600060006006
:105A8000006F807F80718061806180618061806152
:105A90008061806100000000000000000006000638
:105AA00000000000003E003E000600060006000662
:105AB00000060006000600060000000000000006C8
:105AC000000600000000003E003E00060006000642
:105AD0000006000600060006000600060046007EDE
