:020000040800F2
:10000000E8A6002021030008E5050008E705000830
:10001000E9050008EB050008ED05000800000000F8
:10002000000000000000000000000000690200085D
:10003000EF05000800000000BD020008E52C0008E4
:100040003B0300083B0300083B0300083B03000898
:100050003B0300083B0300083B0300083B03000888
:100060003B0300083B0300083B0300083B03000878
:100070003B0300083B0300083B0300083B03000868
:100080003B0300083B0300083B0300083B03000858
:100090003B0300083B0300083B0300083B03000848
:1000A0003B0300083B0300083B0300083B03000838
:1000B0003B0300083B0300083B0300083B03000828
:1000C0003B0300083B0300083B0300083B03000818
:1000D0003B030008C70600083B0300083B03000879
:1000E0003B0300083B0300083B0300083B030008F8
:1000F0003B0300083B0300083B0300083B030008E8
:100100003B0300083B0300083B0300083B030008D7
:100110003B0300083B0300083B0300083B030008C7
:100120003B0300083B0300083B0300083B030008B7
:100130003B0300083B0300083B0300083B030008A7
:100140003B0300083B0300083B0300083B03000897
:100150003B0300083B0300083B0300083B03000887
:100160003B0300083B0300083B0300083B03000877
:100170003B0300083B0300083B0300083B03000867
:100180003B0300083B03000800F002F800F05CF8B5
:100190000AA090E8000C82448344AAF10107DA45E2
:1001A00001D100F051F8AFF2090EBAE80F0013F0D8
:1001B000010F18BFFB1A43F0010318472C8D0000F4
:1001C0004C8D00000A444FF0000C10F8013B13F076
:1001D000070408BF10F8014B1D1108BF10F8015BA0
:1001E000641E05D010F8016B641E01F8016BF9D193
:1001F00013F0080F1EBF10F8014BAD1C0C1B09D1EA
:100200006D1E58BF01F801CBFAD505E014F8016B5B
:1002100001F8016B6D1EF9D59142D6D370470000ED
:100220000023002400250026103A28BF78C1FBD8FF
:10023000520728BF30C148BF0B6070471FB507F099
:100240002FFB1FBD10B510BD07F07BF81146FFF75F
:10025000F5FF00F06FF907F099F803B4FFF7F2FF2C
:1002600003BC07F09DF800002A4B19680868B0E845
:10027000F04F80F30988BFF36F8F4FF0000080F3D9
:10028000118870470000000006480068006880F38D
:10029000088862B661B6BFF34F8FBFF36F8F00DF80
:1002A00000BF00BF08ED00E0DFF80C00016841F47A
:1002B00070010160704700BF88ED00E0EFF3098036
:1002C000BFF36F8F134B1A681EF0100F08BF20ED9D
:1002D000108A20E9F04F106008B44FF0500080F30E
:1002E0001188BFF34F8FBFF36F8F01F0A5FE4FF062
:1002F000000080F3118808BC19680868B0E8F04F66
:100300001EF0100F08BFB0EC108A80F30988BFF30D
:100310006F8F704744080020EFF30580704700009E
:100320000948804709480047FEE7FEE7FEE7FEE789
:10033000FEE7FEE7FEE7FEE7FEE7FEE704480549C5
:10034000054A064B704700000304000889010008B5
:10035000E8A00020E8A60020E8A20020E8A20020F3
:100360000CB500205449019000900A6842F4803294
:100370000A604FF4A0430A6802F400320092019A26
:10038000521C0192009A12B9019A9A42F3D10A685A
:10039000920334D50120009047484030026842F073
:1003A000805202604548026842F44042026042487E
:1003B000083002680260026842F40042026002688B
:1003C00042F4A0520260031F3D4A1A600A6842F0DC
:1003D00080720A600A689201FCD53A4A40F20561CF
:1003E0001160016821F003010160016841F0020120
:1003F00001600168C1F381010229FAD10CBD0090AE
:100400000CBD314810B5016841F4700101602A4803
:10041000016841F001010160274A002108321160A2
:1004200002682A4B1A400260031D294A1A600268BA
:1004300022F48022026020480C300160FFF790FF18
:1004400021494FF000608039086010BD70B51A4C2A
:10045000083420681F4A10F00C011F4804D05510C2
:10046000042903D0082903D002601BE0056019E0CD
:100470001149091D0B68C3F380560B6803F03F0355
:1004800016B1B5FBF3F201E0B2FBF3F20B680968B9
:10049000C3F388135A43C1F30141491C4900B2FB1D
:1004A000F1F1016021680C4AC1F30311121D515C86
:1004B0000268CA40026070BD00380240007000400F
:1004C000085A4006003C024088ED00E0FFFFF6FEBF
:1004D000103000240024F40000000020314C32A130
:1004E000204600F0DCF8C82001F077FDF7E704F0C3
:1004F000BBFE2F4804F040FAFBE71CB500242D4852
:10050000CDE900042D4A2C4B0121A2F2AC5005F09C
:10051000F9FB4FF480352949A1F2AC5005F0D9FD23
:100520000198411C0191A842F5D3002004F095FFE9
:100530000194F0E71FB500F080FC00F059F81AA113
:10054000184800F0ACF84FF000400024CDE900401E
:100550001B4B1CA23221204600F034FD00230A224E
:100560003C21DC2000F0FCFD4FF6FF7000F017FB93
:100570000125CDE90054002302946A0215A1AFF2CF
:10058000A300039401F086FBCDE9005400230294FC
:10059000EA0212A1AFF2A900039401F07BFB01F083
:1005A00097FEFEE7001001405A647261766F00000A
:1005B00034070020D807002004090020C80E0020BE
:1005C0003C0800205465737431546573743154656C
:1005D0007374310054657374000000004D656E75CE
:1005E000000000007047FEE7FEE7FEE7FEE7704709
:1005F00070B588B00121102002F009FE012102200F
:1006000002F0DDFD02208DF814000024C0208DF8DA
:100610001640012504908DF817500320324E8DF8B6
:10062000150004A9304602F00DFF072206213046CE
:1006300002F091FF07221146304602F08CFF4FF482
:1006400016500090ADF808400C20284EADF806403A
:10065000ADF80A00ADF80C40ADF8044069463046EC
:1006600003F07BF9012240F22551304603F085FA70
:100670000121304603F0E2F925208DF8180007200B
:100680008DF819008DF81A408DF81B5006A802F05D
:10069000DAFB4FF4407002F0D1FB08B070BD70B5CA
:1006A0000C46054606E028884006FCD5284603F09F
:1006B000EBF9641C21780029F5D170BD028852063F
:1006C000FCD503F0E1B910B54FF4407002F0B6FB71
:1006D00006488188064AC9B2064B117000221A707A
:1006E000BDE8104003F0D0B9000402400010014002
:1006F000CF080020CE0800202DE9FC410124002570
:10070000964FCDE9005426032B4622463146384603
:1007100001F077F9CDE9005400231A46E10238468A
:1007200001F06FF93146384602F006FFBDE8FC41A2
:1007300001218B4800F06FBF2DE9F041874E0F4635
:1007400004464FF480552946304602F0F7FE2178E2
:10075000834C204601F078F80223002239462046D7
:1007600001F09CF829463046BDE8F04102F0E4BEB5
:100770001CB5D0208DF80400694601A8FFF7DCFF06
:100780009DF800004FF6FF7101EA00209DF801106E
:100790000844C0F30B101CBD1CB590208DF804005C
:1007A000694601A8FFF7C8FF9DF800004FF6FF71EA
:1007B00001EA00209DF801100844C0F30B101CBD95
:1007C00010B5FFF7D5FF674C6080FFF7E5FFA0800D
:1007D000012010BD61481030006840F3C020401C6B
:1007E00070472DE9F04100248AB027462646DFF8FD
:1007F00074816D46FFF7E4FF50B1B8F8021025F898
:10080000141005EB4401B8F80400641C8882E4B2BB
:100810000A2CEFD35FF0000035F8101031448EB28F
:1008200005EB4001401C898AC0B239448FB20A28C6
:10083000F2D30A21B6FBF1F2B7FBF1F1A8F80220DE
:10084000C1F50061A8F804100AB0BDE8F08170B5E8
:10085000FFF7C7FF434C6088AD3806F044FF9FEDBB
:10086000421B53EC112B06F0B9FD06F00FFFC0F14F
:10087000F00085B26580A088F53806F034FF9FED62
:100880003C1B53EC112B06F0A9FD06F0FFFEC0F552
:10089000A07080B2A080F02D01D9F02161804FF4CA
:1008A000A071884200D9A18070BD2DE9F047DFF822
:1008B000AC900D4606464FF400684146484602F0AB
:1008C00027FE002848D1274C207848B15FF0000768
:1008D000FFF7BDFF7F1CFFB2322FF9D3002020703D
:1008E000FFF7B5FF6088E080A0882081FFF7AFFFA9
:1008F000E0886188C21E914227DBC01C814224D857
:100900002089A188C21E91421FDBC01C81421CD8D5
:10091000FFF79DFF6088E080A0882081FFF797FFA8
:10092000E18860888A1E90420FDB891C88420CD8BF
:100930002289A188931E994207DB921C914204D818
:10094000E08021813080208928804146484602F09D
:10095000DFFD012800D12070BDE8F08700040240CF
:1009600000380040CC070020C1CAA145B6731B4027
:10097000D34D621058391440394810B541780029D8
:100980000ED101214170002004F036FD00210846FF
:1009900004F06EFDBDE8104032A13848FFF77FBE7D
:1009A00010BD37493548FFF77ABE35493348E8313D
:1009B000FFF775BE324931481431FFF770BE7047FA
:1009C0002E4A40B1012809D002280AD02C499E3174
:1009D0001046FFF764BE2A494531F9E728496331DB
:1009E000F6E727498131F3E7704770474979234893
:1009F000082905D0032906D12149D031FFF74FBE80
:100A00001F49AF31FAE7704770477047704710B51C
:100A10001B491A4C2B312046FFF741FE19A12046F5
:100A2000FFF73DFE2046BDE8104020A1FFF737BE8E
:100A300027A11248FFF733BE10B50024204604F06A
:100A400061FD012800D10124204610BD26A10B48DC
:100A5000FFF725BE7047024900200870704700006C
:100A6000D607002020555342204F5447204653209C
:100A70004D534320486F7374000000000010014084
:100A8000AA780008546F2073656520746865207229
:100A90006F6F7420636F6E74656E74206F66207460
:100AA0006865206469736B203A200000507265739A
:100AB00073204B65792E2E2E2020202020202020F0
:100AC0002020202020202020202020202020200046
:100AD0003E20446576696365206E6F74207375707F
:100AE000706F727465642E004F76657263757272F2
:100AF000656E742064657465637465642E0000001F
:100B000070B504468021FC4802F016FDFB4D04211F
:100B1000284602F013FD2146F94800F095FE2846CC
:100B2000BDE87040042102F007BD70B50446802185
:100B3000F14802F003FDF14D0421284602F0FEFCCD
:100B40002146EF4800F080FE2846BDE870400421B1
:100B500002F0F2BC2DE9F04107461C4615460E4650
:100B60002A20FFF7E2FF380AFFF7CAFFF8B2FFF7C3
:100B7000C7FF280AFFF7C4FFE8B2FFF7C1FF2B2029
:100B8000FFF7D3FF300AFFF7BBFFF0B2FFF7B8FF64
:100B9000200AFFF7B5FFE0B2BDE8F041B0E72DE96C
:100BA000F041060AC4B2D74841880088491E8BB27A
:100BB000401E82B200210846FFF7CCFF2C20FFF731
:100BC000B4FF00254FF49637F0B2FFF799FF2046A7
:100BD000FFF796FF6D1CBD42F6D3BDE8F08101B56D
:100BE000009801E0401E00900028FBD108BD10B520
:100BF0004021C14802F0A0FC0120FFF796FFC24847
:100C0000FFF7EDFFCB20FFF790FF3920FFF778FFCC
:100C10002C20FFF775FF0020FFF772FF3420FFF74D
:100C20006FFF0220FFF76CFFCF20FFF77EFF002051
:100C3000FFF766FFC120FFF763FF3020FFF760FF7B
:100C4000E820FFF772FF8520FFF75AFF0020FFF72B
:100C500057FF7820FFF754FFEA20FFF766FF0020D8
:100C6000FFF74EFF0020FFF74BFFED20FFF75DFF82
:100C70006420FFF745FF0320FFF742FF1220FFF734
:100C80003FFF8120FFF73CFFF720FFF74EFF2020BA
:100C9000FFF736FFC020FFF748FF2320FFF730FFA4
:100CA000C120FFF742FF1020FFF72AFFC520FFF702
:100CB0003CFF3E20FFF724FF2820FFF721FFC7203D
:100CC000FFF733FF8620FFF71BFF3620FFF72DFFCE
:100CD0004820FFF715FF3A20FFF727FF5520FFF7C1
:100CE0000FFFB120FFF721FF0020FFF709FF1820B9
:100CF000FFF706FFB620FFF718FF0820FFF700FFF9
:100D00008220FFF7FDFE2720FFF7FAFEF220FFF713
:100D10000CFF0020FFF7F4FE2A20FFF706FF00205B
:100D2000FFF7EEFE0020FFF7EBFE0020FFF7E8FEE6
:100D3000EF20FFF7E5FE2B20FFF7F7FE0020FFF77F
:100D4000DFFE0020FFF7DCFE0120FFF7D9FE3F2089
:100D5000FFF7D6FE2620FFF7E8FE0120FFF7D0FEC2
:100D6000E020FFF7E2FE0F20FFF7CAFE3120FFF779
:100D7000C7FE2B20FFF7C4FE0C20FFF7C1FE0E209C
:100D8000FFF7BEFE0820FFF7BBFE4E20FFF7B8FEC0
:100D9000F120FFF7B5FE3720FFF7B2FE0720FFF77F
:100DA000AFFE1020FFF7ACFE0320FFF7A9FE0E20D8
:100DB000FFF7A6FE0920FFF7A3FE0020FFF7A0FE25
:100DC000E120FFF7B2FE0020FFF79AFE0E20FFF7AA
:100DD00097FE1420FFF794FE0320FFF791FE1120E9
:100DE000FFF78EFE0720FFF78BFE3120FFF788FE0E
:100DF000C120FFF785FE4820FFF782FE0820FFF79D
:100E00007FFE0F20FFF77CFE0C20FFF779FE3120DC
:100E1000FFF776FE3620FFF773FE0F20FFF770FE18
:100E20001120FFF782FE3948FFF7D9FE2920FFF78E
:100E30007CFEBDE810402C2077E62DE9FC41012422
:100E400000252D4ECDE900542B4622468021304608
:100E500000F0D7FD294FCDE90054002301220421E1
:100E6000384600F0CEFD0023012240213046CDE976
:100E7000004500F0C6FD0421384602F05DFB00216C
:100E80001F4800F0C8FBFFF7B2FE1E48F021001F0C
:100E900045800580001D01804FF4A07141800471E0
:100EA000BDE8FC414FF6FF7079E629203DE6282099
:100EB0003BE610B514460B460246FFF74BFE2C20CE
:100EC000FFF733FEC4F30720FFF71AFEE0B2BDE8D8
:100ED000104015E62DE9F04105463620FFF725FEC6
:100EE000084CF0274FF4A07695B1012D12D0022DB9
:100EF00017D0032D17D019E0000C02400008024063
:100F0000003001402408002080841E0040420F0071
:100F1000582000E08820FFF7F3FD2780668001203D
:100F200007E0282000E0E820FFF7EAFD2680678040
:100F30000020207151E62DE9F05F1E46DDE90ABA76
:100F40009146FE4C208061801A781044221D128840
:100F5000904204D9707808446080002020800027E7
:100F600027E000BFA9F1200010FB01707268002586
:100F700032F8108019E000BF08FA05F0000407D528
:100F800060885A46384481B22088284480B209E0FB
:100F9000BAF1000F08DB60885246384481B22088DD
:100FA000284480B2FFF785FF6D1C3078A842E3D853
:100FB0007F1C7178B942D5D83078218808442080C8
:100FC000BDE8F09F2DE9FC47DC4CDDE90A98208064
:100FD0001F461546064661800BE00A2A0ED00D2AF0
:100FE00015D0CDE900983B46618820886D1CFFF73D
:100FF000A2FF2A78002AF0D1BDE8FC8760887978C2
:10100000401C0844608068780D2802D026806D1C42
:10101000EFE7002020806D1CF9E730B54D78002403
:101020001D8002E00B7823449CB210F8013B002B9A
:10103000F8D1148030BD2DE9FC5F0546BF48174646
:10104000001D0C4602889846511EAA4200D88DB257
:10105000BA4200D88FB24188481EA14200D884B25B
:10106000414501D81FFA80F8BD4201D2781B00E04B
:10107000E81B0FFA80F9444502D2A8EB040001E016
:10108000A4EB08000FFA80FA4FF0FF30BD4201D206
:10109000012100E001460191444500D20120834630
:1010A0004846D14501DCCAF1000000EBD07040F3A6
:1010B0004F06C9F100000090214628460C9AFFF720
:1010C000F8FEBD4201D1444512D0009930468E420F
:1010D00005DDA0EB0A010EB2019929448DB25045FD
:1010E000EADA06EB090006B204EB0B0084B2E3E790
:1010F000BDE8FC9F2DE9F8431D46089C16460F46A7
:1011000080460B460094FFF796FF42462B46394631
:1011100010460094FFF78FFF32462B4639461046A3
:101120000094FFF788FF2B4632461946404600944C
:10113000FFF781FFBDE8F8832DE9F8431D46174608
:101140000C468046089E08E023463A46194640462B
:101150000096FFF770FF641CA4B2AC42F4D3E9E739
:101160002DE9FF4F0746C2F1010014460FFA80F83F
:10117000C2EBC43040000FFA80FA83B00E46081963
:1011800081B24FF001090025B8B2069AFFF791FE2F
:10119000301B81B2B8B2069AFFF78BFE3819B1B294
:1011A00080B2069AFFF785FEB1B2381B57E000BF48
:1011B000B8F1000F09DB0AF102000FFA80FA641E91
:1011C00008EB0A0024B20FFA80F809F102000FFAC6
:1011D00080F96D1C08EB09002DB20FFA80F8781920
:1011E000019006EB040B1FFA8BF180B2069AFFF711
:1011F00060FE781B00901FFA8BF180B2069AFFF711
:1012000058FE0198A6EB040B1FFA8BF180B2069AE8
:10121000FFF74FFE00981FFA8BF180B2069AFFF796
:1012200048FE3819019006EB050B1FFA8BF180B2CE
:10123000069AFFF73EFE381B00901FFA8BF180B232
:10124000069AFFF736FE0198A6EB050B1FFA8BF105
:1012500080B2069AFFF72DFE00981FFA8BF180B23C
:10126000069AFFF726FEA542A2DB07B0BDE8F08F85
:101270002DE9FE4F0746C2F1010014460FFA80F92E
:10128000C2EBC43040000FFA80FB0D46081981B252
:1012900098464FF0010A0026B8B21A46FFF709FE39
:1012A000281B81B2B8B24246FFF703FE38190290FC
:1012B000A9B280B24246FFF7FCFD381B0190A9B2EB
:1012C00080B24246FFF7F5FD0298ABB2CDF8008040
:1012D00082B2A9B249E000BFB9F1000F09DB0BF1FE
:1012E00002000FFA80FB641E09EB0B0024B20FFA18
:1012F00080F90AF102000FFA80FA761C09EB0A0065
:1013000036B20FFA80F9281983B281B2B81BCDE941
:10131000008007EB060C1FFA8CF2CDF808C080B2F3
:10132000FFF789FE0198291BDDF808C08BB282B255
:10133000CDF8008089B21FFA8CF001E0200800206F
:10134000FFF779FE391BA8198AB2029183B281B2E4
:101350003819CDE9008080B2FFF76DFE0299A81B15
:101360008AB283B2CDF8008081B2019880B2FFF7D3
:1013700062FEA642B0DBBDE8FE8FFFF7D6BB0000E1
:101380001CB528B1032802D1FA48AFF300801CBD78
:1013900005210320CDE9000100231A464FF4E04166
:1013A000F54800F048FB1CBD7CB50524F34E032531
:1013B00038B101280BD0032802D1F148AFF30080E7
:1013C0007CBD00231A464FF4607130460CE0CDE935
:1013D000005400231A464FF40061304600F02BFB06
:1013E0000023E8481A46C021CDE9005400F023FB51
:1013F0007CBD1CB50521E44C032238B101280BD07B
:10140000032802D1E148AFF300801CBDCDE90021E3
:1014100000231A46642105E0CDE9002100231A4685
:101420004FF4E041204600F006FB1CBD1CB5062130
:10143000032238B101280CD0032802D1D448AFF3DD
:1014400000801CBDCDE9002100231A463821D14877
:1014500006E0CDE9002100231A464FF4E051CE48C2
:1014600000F0E9FA1CBD7CB50524CA4E032548B13D
:10147000012815D002281DD0032802D1C748AFF398
:1014800000807CBDCDE9005400231A464FF48061F2
:10149000304600F0D0FA00231A460C21BE4804E082
:1014A00000231A464FF460413046CDE9005400F065
:1014B000C2FA7CBD00231A460D21B948F5E71CB5D8
:1014C0000521032238B101280CD0032802D1B548E8
:1014D000AFF300801CBDCDE9002100231A46E021B6
:1014E000B14805E0CDE9002100231A463821A9487A
:1014F00000F0A1FA1CBD2DE9FF4F85B006469B46C2
:101500001746684602F003F9A648A44AA049DFF846
:101510007C82DFF86C92DFF85CA2A44D0024864246
:1015200007D1286840F4805028600698FFF7C7FF6D
:101530002EE09E48001F964209D1016841F4804187
:1015400001600698FFF78FFFADF804400BE08E4274
:1015500009D1016841F4004101600698FFF766FF78
:10156000ADF804400BE0464509D1286840F400502E
:1015700028600698FFF73DFFADF804400BE04E45AC
:1015800009D1286840F4801028600698FFF70CFF06
:10159000ADF8044009E0564507D1286840F4001032
:1015A00028600698FFF7ECFEF2E7ADF80CB0139850
:1015B000ADF80E00ADF800401298ADF8020047B14A
:1015C0000120012F08D00221022F08D0032F0BD0B9
:1015D0000EE0ADF8064004E0ADF8064006E0ADF8D8
:1015E0000610ADF8084003E0ADF80610ADF80800AD
:1015F0004FF40070ADF80A00308820F040003080D1
:101600006946304602F004F8308840F040003080EF
:1016100009B0BDE8F08F2DE9FC5F0446DFF8848156
:101620005E48DFF86CC1594F0025DFF85491DFF8B0
:1016300044A18B464FF48276444503D100231A46D9
:10164000404626E0844206D1CDE9006520230022F1
:10165000FFF751FF09E0644507D1CDE9006520237C
:1016600000226046FFF747FF0AE03846844207D170
:10167000CDE90065202300225946FFF73CFF02E038
:101680004846844202D05046844206D1202300229C
:101690005946CDE90065FFF72EFFBDE8FC9F2DE917
:1016A000F74F0446DFF8FC803C48DFF8E4C0374FD2
:1016B0000025DFF8CC90DFF8BCA082B093464FF451
:1016C0008276444505D1CDE9006500234046039963
:1016D00028E0844206D1CDE9006520230399FFF775
:1016E0000AFF09E0644507D1CDE900652023604683
:1016F0000399FFF700FF0AE03846844207D1CDE99D
:10170000006520235A460399FFF7F5FE02E048469C
:10171000844202D05046844206D1CDE900652023A0
:101720005A460399FFF7E7FE05B072E72DE9FF4F30
:1017300083B00446DDE91065DFF868801748DFF8FC
:1017400050C0124FDFF83890DFF828A09346444588
:1017500006D1CDE9006513464046069A049948E053
:10176000844225D1CDE900651346069A0499FFF716
:10177000C2FE28E00054014000180240001402405C
:1017800000500140001C02400010024000340140A3
:10179000003C0040000402400008024000380040C5
:1017A0000020024000300140000002404438024066
:1017B000644508D1CDE9006513466046069A049950
:1017C000FFF799FE0AE03846844207D1CDE900656B
:1017D0005B46069A0499FFF78EFE02E04846844273
:1017E00002D05046844206D1CDE900655B46069A98
:1017F0000499FFF780FE07B00BE77FB50D000446A4
:1018000020D0684601F046FC4A48844208D04A4845
:10181000844205D04948844202D04948844201D1DB
:10182000039900E0029900200123421C03FA02F40C
:10183000B1FBF4F4AC4202D8C00004B070BDD0B229
:101840000828F2D33820F8E7818101898907FCD57F
:101850000189C907FCD001890906FCD48089C0B27E
:10186000704770B50D460646002406E0295D3046F7
:10187000FFF7EAFF1055641CA4B29C42F6D370BD7A
:1018800030B50C460546002305E0E15C2846FFF72D
:10189000DBFF5B1C9BB29342F7D330BD70B50D46A6
:1018A0000646002406E011463046FFF7CDFF2855D6
:1018B000641CA4B29C42F6D370BD81810189890762
:1018C000FCD50189C907FCD001890906FCD48089AF
:1018D000704770B50D460646002408E035F8141030
:1018E0003046FFF7EAFF22F81400641CA4B29C42C1
:1018F000F4D370BD30B50C460546002307E000BFA9
:1019000034F813102846FFF7D8FF5B1C9BB29342B4
:10191000F6D330BD70B50D460646002407E01146EB
:101920003046FFF7CAFF25F81400641CA4B29C429D
:10193000F5D370BD0030014000340140005001403B
:10194000005401402DE9F04FDFF81483C54FDFF854
:1019500018C3C64EC64DC74CC74BC84ADFF82093C4
:10196000DFF820A3DFF820B3C849404503D1086859
:1019700040F0010042E0B84204D10F6847F002078E
:101980000F6006E0604504D10E6846F004060E6064
:1019900006E0B04204D10D6845F008050D6006E090
:1019A000A84204D10C6844F010040C6006E0A04288
:1019B00004D10B6843F020030B6006E0984204D189
:1019C0000A6842F040020A6006E0904204D10A68C8
:1019D00042F080020A6006E0484504D10A6842F4F9
:1019E00080720A6005E0504503D1086840F4007039
:1019F00004E0584503D1086840F480600860BDE801
:101A0000F08F2DE9F0471D46DDE9088716460C00EA
:101A100081460ED0FFF796FF9D48014606718571FD
:101A2000046080F8078047714846BDE8F04701F040
:101A300009BDBDE8F0872DE9F05F1F46DDE90A9A90
:101A400090460E00834624D0FFF77CFF002501243A
:101A500004FA05F030420AD0002101E04008491C98
:101A60000128FBD889B25246584601F074FD6D1C1E
:101A7000102DEDD386480221017180F806800660A2
:101A8000C77180F8059001465846BDE8F05F01F047
:101A9000D9BCBDE8F09F70B5002201255FF00303BB
:101AA00005FA02F40C4205D00468560003FA06F663
:101AB00034430460521CD2B2102AF1D370BD70B509
:101AC000002201255FF0030305FA02F40C4205D061
:101AD0000468560003FA06F6B4430460521CD2B2FE
:101AE000102AF1D370BDF0B5002201235FF003048A
:101AF00003FA02F50D4208D00568560004FA06F70D
:101B0000BD4303FA06F73D430560521CD2B2102ACA
:101B1000EED3F0BD2DE9F04F0146DFF844810020FF
:101B2000504A514B514C524D524E534FDFF84CC11D
:101B3000DFF84C91DFF84CA1DFF84CB1414522D0E1
:101B4000914201D1012003E0994201D1022003E03A
:101B5000A14201D1032003E0A94201D1042003E006
:101B6000B14201D1052003E0B94201D1062003E0D2
:101B7000614501D1072003E0494501D1082003E078
:101B8000514501D109203AE75945FCD10A2036E7F1
:101B9000002102E0491C89B240080128FAD8084611
:101BA00070472DE9F04FDFF8B8802E4FDFF8B8C04E
:101BB0002E4E2F4D2F4C304B304ADFF8C490DFF8BB
:101BC000C4A0DFF8C4B03149404503D1086820F013
:101BD000010042E0B84204D10F6827F002070F600D
:101BE00006E0604504D10E6826F004060E6006E0AB
:101BF000B04204D10D6825F008050D6006E0A8424A
:101C000004D10C6824F010040C6006E0A04204D15A
:101C10000B6823F020030B6006E0984204D10A68A9
:101C200022F040020A6006E0904204D10A6822F0E5
:101C300080020A6006E0484504D10A6822F48072F6
:101C40000A6005E0504503D1086820F4007004E004
:101C5000584503D1086820F480600860CFE6000092
:101C6000000002400004024000080240000C024054
:101C7000001002400014024000180240001C024004
:101C80000020024000240240002802403038024078
:101C90002C0800202DE9F05F5FEA000ADDE90B80E7
:101CA0000A9E9B461546894609D0042E0FD3502024
:101CB00080F31188BFF34F8FBFF36F8FFEE7502083
:101CC00080F31188BFF34F8FBFF36F8FFEE710B91A
:101CD000A80000F0ABFE070019D04C2000F0A6FED3
:101CE00090B1044607636FF0030000EB85003844B1
:101CF00020F0070778070DD0502080F31188BFF33C
:101D00004F8FBFF36F8FFEE7384600F0E5FE4FF0D0
:101D1000FF3485E049463546002022180B5C82F8E6
:101D200034300A5C12B1401C1028F6D34FF0000981
:101D300084F84390042D00D30325201DE56200F0B4
:101D40003CFE04F1180000F038FE2461C5F10401E6
:101D50006462A161C4F8449084F848905A465146A0
:101D6000384600F0EFFE2060B8F1000F01D0C8F84F
:101D7000004000F08AFFF94D6868401C68602868E0
:101D8000DFF8DC8310B1286928B329E02C6068688B
:101D9000012825D15FF0000707EB870108EB8100E0
:101DA00000F000FE7F1C042FF6D3ED48503000F009
:101DB000F9FDEB48643000F0F5FDE948783000F0BB
:101DC000F1FDE7488C3000F0EDFDE5485030E86269
:101DD0001430286304E02868C06AB04200D82C6040
:101DE000286A401C2862E16A0120EA6888401043A2
:101DF000E86001EB810108EB8100211D00F0E0FDAE
:101E0000012400F05EFF286950B12868C06AB04222
:101E100006D2D44920070860BFF34F8FBFF36F8FFE
:101E20002046BDE8F09F2DE9F041CC4C0026A06A89
:101E300040B16069401C6061A06900B10126304674
:101E4000BDE8F081A068401CA060A7689FB9E06A67
:101E5000006838B1502080F31188BFF34F8FBFF373
:101E60006F8FFEE7E06A216BE1622063E069401C4E
:101E7000E06100F083FD606ADFF8E482874209D305
:101E8000E06A006880B1E06AC068C5686868874237
:101E90000DD260622068C06A00EB800158F8210012
:101EA0000128C9D90126C7E74FF0FF30F1E7281D07
:101EB00000F0AAFDA86A18B105F1180000F0A4FD11
:101EC000E86A0121E26881401143E16000EB800192
:101ED00008EB8100291D00F073FDE86A2168C96ADA
:101EE0008842CDD30126CBE72DE9F0479B4C002655
:101EF000A06A38B100F0C9FEA06A401EA062A06AC4
:101F000040B148E0502080F31188BFF34F8FBFF3FA
:101F10006F8FFEE76168924D7835012079B3DFF865
:101F2000409280462868E8B1E868C76807F1180061
:101F300000F06AFD381D00F067FDF96AE26808FAF2
:101F400001F01043E06001EB810109EB8100391DD4
:101F500000F036FDF86A2168C96A8842E2D3C4F805
:101F60001880DFE7606958B14546606940B1FFF706
:101F70005AFF00B1A5616069401E6061F5E70AE0A3
:101F8000A069012807D17749012600070860BFF33F
:101F90004F8FBFF36F8F00F094FE3046BDE8F0879F
:101FA00070B56E4C054620684560A0682168854282
:101FB00005D2206BBDE87040091D00F00DBDE06A40
:101FC000091D00F009FD606A854200D2656270BD9E
:101FD0006248816A491C8162704770B5020022D054
:101FE0005E4CA06A38B1502080F31188BFF34F8F48
:101FF000BFF36F8FFEE7FFF7EBFFA068851820683F
:10200000001D00F001FD38B9206890F82C10012067
:102010008840E1688143E1602846FFF7C1FFFFF790
:1020200063FF002807D14F494FF080500860BFF38D
:102030004F8FBFF36F8F70BD4848816A11B1012186
:102040008161704700218161C168B1FA81F1C1F1FC
:102050001F0101EB8102424951F822306BB101EBC3
:10206000820101F108034A6852684A609A4201D12C
:1020700052684A60D16801607047502080F311882F
:10208000BFF34F8FBFF36F8FFEE770B5044600F0CC
:10209000FCFD324D04B92C68201D00F0B5FC58B988
:1020A000E06A2F4A00EB800152F8211021B901218A
:1020B0008140E8688843E860A06A18B104F118001C
:1020C00000F0A2FC2648211D8C3000F079FC00F0C5
:1020D000F8FD2868844228691FD190B1A86A38B1F8
:1020E000502080F31188BFF34F8FBFF36F8FFEE74F
:1020F0001C494FF080500860BFF34F8FBFF36F8FC4
:1021000070BD174869688C300068884202D1002091
:10211000286070BDBDE870408EE70028F9D000F05F
:10212000B4FD00F02BFCBDE8704000F0CABD0021FA
:1021300058B10B4B42698C339A4216D1806AA3F195
:102140001402904211D078B10FE0502080F3118832
:10215000BFF34F8FBFF36F8FFEE7000044080020EE
:102160004C0F002004ED00E001210846704770B5D7
:1021700004000BD0FE4D2868844231D000F085FD6C
:102180002046FFF7D4FF012808D025E0502080F337
:102190001188BFF34F8FBFF36F8FFEE7201D00F054
:1021A00033FCE06A0121EA6881401143E960F149AA
:1021B00000EB800001EB8000211D00F001FCE06AD3
:1021C0002968C96A884207D3EB494FF080500860FC
:1021D000BFF34F8FBFF36F8FBDE8704000F071BD4C
:1021E00070BD2DE9F0410027040010D000F0F1FD92
:1021F0005020EFF3118580F31188BFF34F8FBFF3A9
:102200006F8F2046FFF793FF012808D026E050206B
:1022100080F31188BFF34F8FBFF36F8FFEE7D44E6B
:10222000B06A20B1D34804F11801783014E0E06AB4
:102230003168C96A884200D30127201D00F0E4FB01
:10224000E16A0120F26888401043F06001EB8100F0
:10225000C84901EB8000211D00F0B2FB85F3118815
:102260003846EDE5C2480168C96A09B100207047E7
:10227000C04909680129F9D8416A8068081A70477D
:10228000BC4DBD4FBA4C4FF080562868012804D988
:102290003E60BFF34F8FBFF36F8FFFF7E3FF02285E
:1022A000F3D3FFF795FE606AA168884207D25020F9
:1022B00080F31188BFF34F8FBFF36F8FFEE7FFF7F7
:1022C000D1FF022801D300F021FDFFF70DFEDCE76E
:1022D0001FB5002400940194029423464FF48072A9
:1022E000A6A1A8480394FFF7D5FC012809D000282F
:1022F00016D1502080F31188BFF34F8FBFF36F8F3B
:10230000FEE7502080F31188BFF34F8FBFF36F8F2C
:102310009748012101618460BDE81F4000F041BC85
:102320001FBD502080F31188BFF34F8FBFF36F8F15
:102330008F490020086100F09ABC8D488068704782
:1023400010B500F046FD8A48806810BD8848406896
:10235000704787498A684B6A02449A4207D95020DD
:1023600080F31188BFF34F8FBFF36F8FFEE78A684A
:1023700010448860704770B50D4650B17C4C2168A0
:10238000183100F029FB2068001D00F03DFB40B132
:102390000FE0502080F31188BFF34F8FBFF36F8F92
:1023A000FEE7206890F82C1001208840E168814306
:1023B000E160681C04D0A0682844BDE87040EFE5E7
:1023C00021686C48BDE870408C30091D00F0F8BAF7
:1023D00070B5154680B1664CA26AAAB1226841F078
:1023E000004191612168183100F0EAFA2068001D6F
:1023F00000F00AFB80B117E0502080F31188BFF392
:102400004F8FBFF36F8FFEE7502080F31188BFF32B
:102410004F8FBFF36F8FFEE7206890F82C100120DC
:102420008840E1688143E160681C04D0A0682844CA
:10243000BDE87040B4E521684E48BDE870408C307E
:10244000091D00F0BDBA2DE9F041C068C468ACB107
:1024500004F11800074600F0D7FA454DA86A012696
:10246000A0B144483946783000F0AAFAE06A2968F9
:10247000C96A88421AD90124AE6118E0502080F35D
:102480001188BFF34F8FBFF36F8FFEE7201D00F061
:10249000BBFAE16AEA6806FA01F01043E86001EB72
:1024A0008100344901EB8000211DDDE7002400F0AC
:1024B00065FA2046C4E470B52D4EB26A02B341F00D
:1024C00000410160C4681CB300F09EFA201D00F0BA
:1024D0009BFAE16A0125F26805FA01F01043F06009
:1024E00001EB8100234901EB8000211D00F068FA17
:1024F000E06A3168C96A884212D90120B56170BDAD
:10250000502080F31188BFF34F8FBFF36F8FFEE72A
:10251000502080F31188BFF34F8FBFF36F8FFEE71A
:10252000002070BD28B11249CA6902608968416003
:102530007047502080F31188BFF34F8FBFF36F8F28
:10254000FEE770B50D46040026D06DB300F09DFB8C
:10255000074A91682868431C1CD02368D2699342BB
:1025600002D062688A4227D96268891A81420BE0E8
:10257000440800204C0F002004ED00E049444C4585
:10258000000000008122000816D2401A2860204670
:10259000FFF7C8FF002410E0502080F31188BFF33C
:1025A0004F8FBFF36F8FFEE7502080F31188BFF38A
:1025B0004F8FBFF36F8FFEE7012400F082FB2046B0
:1025C00070BDF549012088617047F4490120096810
:1025D00009B100207047F0498A69002AF9D1EF4A11
:1025E000496814321268491E8A42F3D102207047AA
:1025F000E94908680A688069D26A0968C2F1040278
:102600008A6170472DE9F0410D46074600F03DFB19
:10261000E14C2068406CF8B92068012680F84860D9
:10262000D5B12068001D00F0EFF930B9206890F8AE
:102630002C008640E068B043E060681C18D0A068B9
:102640002844FFF7ADFC00BFD5494FF0805008602B
:10265000BFF34F8FBFF36F8F00F033FB00F015FB1C
:102660002068456C00216DB1206847B1416409E0E4
:102670002168CA48091D143000F0A2F9E4E7426C51
:10268000521E4264206880F8481000F01AFB284669
:10269000E7E52DE9F0411D4616468846074600F05D
:1026A000F4FABD4C206890F84800022822D0206837
:1026B000416CB94341642068012780F84870CDB16E
:1026C0002068001D00F0A0F930B9206890F82C00B7
:1026D0008740E068B843E060681C26D0A0682844C2
:1026E000FFF75EFCAE494FF080500860BFF34F8F9C
:1026F000BFF36F8F00F0E5FA00F0C7FA16B120685B
:10270000406C3060206890F84800012814D02068A0
:10271000416C21EA0801416401252168002081F80B
:10272000480000F0CEFA28469BE521689B48091D29
:10273000143000F045F9D5E70025EEE72DE9F0412A
:102740001F4690460D46012690B1044600F09DFAC2
:102750000FB1606C386094F84800022184F848108A
:10276000B8F1050F16D2DFE808F0150B0E141200B1
:10277000502080F31188BFF34F8FBFF36F8FFEE7B8
:10278000616C294301E0616C491C616402E002282C
:1027900003D06564012802D02BE0002629E0201D2B
:1027A00000F032F97C4DE06A0121EA688140114372
:1027B000E9607A4900EB8000783901EB8000211D47
:1027C00000F0FEF8A06A38B1502080F31188BFF302
:1027D0004F8FBFF36F8FFEE7E06A2968C96A8842AE
:1027E00007D96F494FF080500860BFF34F8FBFF398
:1027F0006F8F00F066FA304633E52DE9F0479846D2
:1028000091460E4604004FF0010717D000F0E1FAA0
:102810005020EFF3118580F31188BFF34F8FBFF382
:102820006F8F94F84800022184F84810B9F1050F21
:1028300016D2DFE809F0150B0E141200502080F3B9
:102840001188BFF34F8FBFF36F8FFEE7616C314389
:1028500001E0616C491C616402E0022803D06664F7
:10286000012802D020E000271EE0A06A38B15020E5
:1028700080F31188BFF34F8FBFF36F8FFEE7464E93
:10288000B06A4FF00109A0B1444804F1180100BF3B
:1028900000F096F8E06A3168C96A884204D9B8F154
:1028A000000F01D0C8F8009085F311883846BDE8C4
:1028B000F087201D00F0A8F8E06AF26809FA00F13C
:1028C0001143F160354900EB8000783901EB80005D
:1028D000211DDDE72DE9F0410E46040015D000F082
:1028E00078FA5020EFF3118580F31188BFF34F8FF2
:1028F000BFF36F8F94F84800022184F84810616C90
:10290000491C6164012808D024E0502080F311881C
:10291000BFF34F8FBFF36F8FFEE7A06A38B150202F
:1029200080F31188BFF34F8FBFF36F8FFEE71A4F0D
:10293000B86A4FF0010880B1184804F1180100BFCF
:1029400000F03EF8E06A3968C96A884202D90EB1DF
:10295000C6F8008085F3118883E4201D00F054F848
:10296000E06AFA6808FA00F11143F9600B4900EBDC
:102970008000783901EB8000211DE1E70648C16A3B
:10298000096829B1C16AC968C96849684162704764
:102990004FF0FF31FAE7000044080020C40F002088
:1029A00004ED00E000F108014FF0FF32C0E9011230
:1029B000C160016100210160704700210161704721
:1029C00042684A6093688B609368596091600861BF
:1029D0000168491C0160704730B50B685A1C02D071
:1029E00000F1080202E0026904E02246546825680A
:1029F0009D42FAD953684B6099608A6051600861C2
:102A00000168491C016030BDD0E9013201699A605A
:102A1000D0E901235A604A68824201D182684A6043
:102A2000002202610868401E086070472DE9F041ED
:102A300004460025FFF7CCFA374A02F10801506836
:102A400001F1080368B93548002720F00700C1E903
:102A5000000748F6F836C3E90076C0E900360120E1
:102A6000506048F6F73094B30834660704D004F099
:102A70000706C6F108063444661E864227D2264859
:102A80000968083001E0084631464E68A64202D285
:102A90000E68002EF7D1994219D005680B680360C3
:102AA00048680835001B10280DD90B1958601A48C2
:102AB0004C6008305E6800E0204604686768B742F2
:102AC000FAD31C60036048681168081A1060FFF7A9
:102AD0000BFA2846BDE8F08110B5002817D0A0F108
:102AE0000804FFF775FA0C486168083000E01046EA
:102AF000026853688B42FAD322600460064861681A
:102B0000026811440160BDE81040FFF7EDB910BD47
:102B1000014800687047704778080020F40F0020D3
:102B2000BF484068401C4FF0500080F3118804D02B
:102B3000BFF34F8FBFF36F8FFEE7BFF34F8FBFF32E
:102B40006F8FFEE710B5031F4FF080741C601B1FD2
:102B50001960191FB34B0B6014390A60091F6FF01D
:102B6000020244380A6010BDAF4810B501684FF446
:102B70007A72B1FBF2F3AA486FF07F448360B4FB32
:102B8000F3F3C360B1FBF1F32D24B4FBF3F3B1FB1A
:102B9000F2F103614FF0E020491E41610321016120
:102BA00010BD1CB5A1480168A14A914207D150202F
:102BB00080F31188BFF34F8FBFF36F8FFEE700687C
:102BC0009B49491E884207D1502080F31188BFF3EA
:102BD0004F8FBFF36F8FFEE7964908780190FF2073
:102BE000087008788DF800009DF800009DF800201E
:102BF00000F0F000904207D0502080F31188BFF31E
:102C00004F8FBFF36F8FFEE79DF80000844C00F0FC
:102C1000500020700720606106E000BF9DF8002092
:102C200052008DF80020401E9DF800201206F5D4B9
:102C3000000200F4E0606061019808707B48203079
:102C4000016841F470010160016841F07041016068
:102C5000FFF78AFF00206060FDF726FB76480168D9
:102C600041F040410160FDF70FFB00201CBD6C48A6
:102C70004068B0F57A7F07D0502080F31188BFF309
:102C80004F8FBFF36F8FFEE77047502080F311889E
:102C9000BFF34F8FBFF36F8F61494868401C486096
:102CA00001280DD16148001D006810F0FF0F07D00A
:102CB000502080F31188BFF34F8FBFF36F8FFEE773
:102CC00070475749486828B1401E486001D180F3D9
:102CD00011887047502080F31188BFF34F8FBFF3E6
:102CE0006F8FFEE710B5502080F31188BFF34F8F30
:102CF000BFF36F8FFFF797F820B14C494FF080502A
:102D0000091D0860002080F3118810BD2DE9F041F5
:102D1000434E0546F068854200D905464FF0E02451
:102D2000206920F001002061A169B268681E02FBE1
:102D300000173069874200D93F1A72B6FFF745FC89
:102D400008B367610021A161206940F001002061A2
:102D500025B1BFF34F8F30BFBFF36F8F206920F0D5
:102D60000102226162B6C00319D5A069B268381A9F
:102D7000101A3369401E984201D3904200D9501E68
:102D800060616D1E15E0A0696061206940F001007E
:102D90002061B068401E606162B6BDE8F081B06835
:102DA000A2694543AA1AB2FBF0F56B1C4343981A7B
:102DB0006061A161FFF769FF206940F001002061B7
:102DC0002846FFF7C6FAB068401E6061BDE8F041D2
:102DD00077E710B5FDF7A0FA114910280ED300F1DE
:102DE000E02090F8F0030A78904207D2502080F358
:102DF0001188BFF34F8FBFF36F8FFEE70B480C3086
:102E00000068496900F4E060884207D9502080F3E7
:102E10001188BFF34F8FBFF36F8FFEE710BD000027
:102E200090080020212B00080000002000ED00E0A9
:102E300071C20F4100E400E034EF00E0284908438C
:102E400028490860704730B50F22C4780178012303
:102E5000FCB1244C246801F1E02104F4E064C4F5E1
:102E6000E064C4F30724C4F10405E2404478AC40B4
:102E70008578154025432A0181F80024007800F068
:102E80001F018B404009800000F1E020C0F80031B4
:102E900030BD01F01F0083404809800000F1E020B0
:102EA000C0F8803130BD104A114001430D48001F69
:102EB000016070470B4A121D0029116801D00143BF
:102EC00000E08143116070474FF0E0210428086959
:102ED00003D020F004000861704740F00400FAE7D6
:102EE0000000FA050CED00E080FFFF1FF8480168C4
:102EF00041F001010160F64A0021083211600268C8
:102F0000F44B1A400260031DF34A1A60F04BF34A77
:102F100084331A60F04A103A1B1D1A60026822F4CA
:102F200080220260EA480C300160181D0160704781
:102F3000E7490022891C0A70087070470246002089
:102F4000510901290CD002290CD0E14974310968DA
:102F500002F01F02012393400B4200D00120704772
:102F6000DB49F4E7DA497031F1E718B500204FF496
:102F7000A04400903120FFF7E1FF0099491C009127
:102F8000A14201D00028F5D03120FFF7D7FF00285B
:102F900000D0012018BDCE490A6822F0F80242EAAA
:102FA000C00008607047CE4908607047C8490022D9
:102FB00070310A700A70012802D0042801D105205E
:102FC00008707047C7490860704741EA82115A0883
:102FD00010B5C54B029C03EB02421143014341EA89
:102FE0000460BB49091D086010BDBD4908667047F3
:102FF000800140EA0170B649843108607047B849E1
:1030000088667047800140EA0160B14940EA027079
:10301000883108607047B24908677047B049C86492
:103020007047AB4A08321368084323F0EC63184337
:1030300010607047A64A08321368084323F07843AB
:10304000184310607047A24A0832116821F003014A
:103050000143116070479E480830006800F00C0082
:1030600070479B4A0832116821F0F001014311605A
:103070007047974A0832116821F4E051014311600A
:103080007047934908310A6822F4604242EAC0005E
:103090000860704770B58E4A08321168934C11F081
:1030A0000C0104D06610042903D0082903D0046061
:1030B0001BE0066019E08649091D0B68C3F38055C3
:1030C0000B6803F03F0315B1B6FBF3F301E0B4FB6B
:1030D000F3F30C680968C4F388146343C1F3014136
:1030E000491C4900B3FBF1F1016011680F2303EAA9
:1030F00011117F4B5C5C0168E14041601468072559
:1031000005EA94241C5D21FA04F48460126805EA3F
:1031100052329A5CD140C16070BDC0F301210329D5
:1031200008D16B4A0832116821F4F8137149014043
:1031300019431160664970310A68C0F30B000243FD
:103140000A607047674944390860704765494039EB
:10315000086070476249C1F85C0170475C4A8C3274
:10316000116821F44011014311607047584A8C32B4
:10317000116821F44001014311607047544A8C32B8
:103180001168401E21F01F01014311607047504932
:103190008C310A686FF0FF0322F4F85203EB002031
:1031A0001043086070474A4A8C32116821F440315C
:1031B0000143116070475049C1F8E0017047444A2B
:1031C00030320029116801D0014300E081431160D1
:1031D00070473F4A34320029116801D0014300E0B2
:1031E0008143116070473A4A38320029116801D092
:1031F000014300E0814311607047354A40320029A5
:10320000116801D0014300E0814311607047304AEA
:1032100044320029116801D0014300E0814311606C
:1032200070472B4A10320029116801D0014300E099
:10323000814311607047264A14320029116801D079
:10324000014300E0814311607047214A1832002990
:10325000116801D0014300E08143116070471C4AAE
:1032600020320029116801D0014300E08143116040
:103270007047174A24320029116801D0014300E049
:10328000814311607047124A50320029116801D001
:10329000014300E08143116070470D4A5432002918
:1032A000116801D0014300E0814311607047084A72
:1032B00058320029116801D0014300E081431160B8
:1032C0007047034A60320029116817D0014316E0A5
:1032D00000380240FFFFF6EA1030002400300020E2
:1032E00000004742800E47420000FFFF0024F40028
:1032F000A8080020FFFCFF0F001047428143116027
:103300007047194A0029116801D0014300E0814348
:103310001160704714490C310128086803D020F06F
:1033200008000860704740F00800FAE70E4A573A74
:103330000029117801D0014300E0814311707047EA
:1033400009481030016841F0807101607047014602
:10335000054A0020583A12680A4200D001207047FE
:10336000014956390870704764380240824910B5E7
:10337000884206D101210846FFF753FF00210120B2
:103380005BE07E49884206D101210220FFF749FF18
:103390000021022051E07A49884206D1012104200F
:1033A000FFF73FFF0021042047E07649884206D11D
:1033B00001210820FFF735FF002108203DE0724978
:1033C000884206D101211020FFF72BFF0021102099
:1033D00033E06E49884206D101212020FFF721FF0A
:1033E0000021202029E06A49884206D1012140209D
:1033F000FFF717FF002140201FE06649884206D1F1
:1034000001218020FFF70DFF0021802015E0624997
:10341000884202D1012184150AE06049884202D124
:103420000121441504E05E4988420AD101210415B6
:103430002046FFF7F6FE00212046BDE81040FFF7CA
:10344000F0BE10BDF0B50023012403270D6804FA77
:1034500003F21540954242D1D0F800C05E0007FA51
:1034600006F52CEA050CC0F800C091F804C0D0F8AD
:1034700000E00CFA06FC4CEA0E0CC0F800C091F813
:1034800004C0BCF1010F02D0BCF1020F1FD1D0F873
:1034900008C02CEA050CC0F808C091F805C0D0F8A7
:1034A00008E00CFA06FC4CEA0E0CC0F808C0D0F894
:1034B00004C02CEA020CC0F804C0426891F806C0AF
:1034C0000CFA03FC1FFA8CFC42EA0C024260C26850
:1034D000AA43C260CA79C568B2402A43C2605B1C75
:1034E000102BB3D3F0BD4FF6FF71016000210171C5
:1034F00041718171C171704708B541F48032009209
:10350000C261C1610099C161C169C069009008BD13
:103510000246002012690A4200D00120704700696B
:1035200080B270470246002052690A4200D0012052
:103530007047406980B2704701837047418370478C
:103540000AB1018370474183704741617047426906
:103550004A40426170474B07DB0E9A40C90810B5DC
:1035600000EB8100016A0F249C40A1430162016AC3
:103570001143016210BD000000000240000402403F
:1035800000080240000C02400010024000140240FB
:1035900000180240001C02400020024000240240AB
:1035A00000280240C14910B5884202D1012184148B
:1035B00024E0BF49884202D10121041404E0BD493E
:1035C00088420AD10121C4132046FFF748FE204655
:1035D000BDE810400021FFF742BEB749884202D142
:1035E000012144140AE0B549884202D101210C05A9
:1035F00004E0B34988420AD101214C052046FFF777
:1036000038FE2046BDE810400021FFF732BE10BD55
:1036100030B502884C8802F441530A88CD88224391
:103620008C882C4322430C8922434C8922438C8969
:103630002243CC8922431A430280828B22F4006207
:103640008283098A018230BDF0B502220023858B76
:1036500001244FF24006354085830284858B8E68B5
:10366000022E42D08A8802B10224964A13681B02B5
:1036700003D5136823F400031360924A7C32136865
:103680001268C3F388168F4FC2F302733F1F3A6864
:103690003F6802F03F027F0201D58B4F00E08B4F65
:1036A000B7FBF2F27243B2FBF3F2CB88B3F5007FC3
:1036B0002BD06301B2FBF3F202EB82028B68520063
:1036C000B2FBF3F2521D92B20A23B2FBF3F202F004
:1036D0000103D21A4FF6FF74C2F34F0204EA032328
:1036E000941EFE2C01D302220023CC881A431443DB
:1036F00004840A884B881A438B8889890B431A43B0
:103700002A4342F400618183F0BD120AD4E700210C
:10371000018041808180C180018141818181C1819D
:103720000721018270470021018041808180C18092
:1037300002228260818170470029018802D041F015
:10374000400101E021F04001018070470029818B98
:1037500002D041F4806101E021F4806181837047EF
:10376000028822F40062028002880A4302807047C5
:10377000B1F5804F018803D021F48041018070476A
:1037800041F48041FAE7A1F57E420188FF3A02D078
:1037900041F4807101E021F48071018070470029BB
:1037A000818802D041F0040101E021F00401818010
:1037B00070470029818802D041F0100101E021F01A
:1037C00010018180704730B5838B00224FF2400496
:1037D0002340838302230384848B0B884FF48075FA
:1037E000B3F5007F00D003B92A464B888D888989BC
:1037F0002B4311430B43234343F40061818330BDCA
:1038000080897047818170470029018802D041F486
:10381000005101E021F4005101807047018841F41A
:10382000805101807047012901D0008B7047808A48
:103830007047008A7047002A828801D00A4300E05E
:103840008A4382807047090901238B40002A8288BD
:1038500099B201D00A4300E08A4382807047024651
:10386000002012890A4200D001207047C94301811B
:10387000704710B501F00F040122034602FA04F468
:10388000002009098A4091B29A88A4B20A40198995
:10389000214202D0002A00D0012010BD01F00F0209
:1038A00001219140C943018170470000003001406F
:1038B00000380040003C004000340140005001400E
:1038C000005401400838024000127A000024F4003D
:1038D000CF4910B5884206D101211020FFF7C9FC5D
:1038E0000021102020E0CB49884202D101214C0464
:1038F00029E0C949884202D101218C0423E0C7494B
:10390000884202D10121CC041DE0C549884202D180
:1039100001210C0517E0C349884209D1012120206B
:10392000FFF7A7FC00212020BDE81040FFF7A1BC55
:10393000BD49884202D101218C0704E0BB4988427D
:103940000AD1012144052046FFF789FC2046BDE845
:1039500010400021FFF783BC10BD7FB50446008AEC
:103960000D4620F44051E88808432082A08941F2A6
:103970000C618843A9882A8911436A89024311434B
:10398000A181A08A20F44071A8890843A0826846DA
:10399000FFF780FB9E48844202D0A248844201D1B6
:1039A000039800E00298A189090400EBC00101EB33
:1039B0000010296801D5490000E08900B0FBF1F250
:1039C0006420B2FBF0F109010B096FF018056B439D
:1039D00002EB8302A3891D044FF0320306D503EBEB
:1039E000C202B2FBF0F000F0070005E003EB0212A8
:1039F000B2FBF0F000F00F00084320817FBD4FF4D0
:103A00001651016000218180C18001810C22428118
:103A10008181704710B5028A4C8822F470630A884D
:103A200022438C88C9880C4322431A43028210BD6A
:103A30000021018041808180C180704700298189F7
:103A400002D041F4005101E021F40051818170471E
:103A5000028B02F47F420283028B0A430283704787
:103A60000029818902D041F4004101E0C1F30E0137
:103A7000818170470029818A02D041F4006101E010
:103A800021F4006181827047C1F308018180704791
:103A90008088C0F308007047028A22F00F02028279
:103AA000028A0A43028270470029818902D041F0CC
:103AB000020101E021F0020181817047828922F434
:103AC0000062828182890A4382817047028A22F0E1
:103AD00020020282028A0A43028270470029018A78
:103AE00002D041F4804101E021F48041018270471D
:103AF000818941F00101818170470029818A02D0CA
:103B000041F0080101E021F0080181827047028B39
:103B1000D2B20283028B42EA01210183704700295D
:103B2000818A02D041F0200101E021F02001818250
:103B300070470029818A02D041F0100101E021F094
:103B4000100181827047828A22F004028282828A76
:103B50000A43828270470029818A02D041F0020123
:103B600001E021F0020181827047002A828A01D09F
:103B70000A4300E08A438282704710B5C1F34213C2
:103B800001F01F040121A140012B07D0022B07D017
:103B90001430002A026805D00A4304E00C30F8E72C
:103BA0001030F6E78A43026010BD024600201288FA
:103BB0000A4200D001207047C9430180704730B5E8
:103BC00001F01F0201240025C1F3421304FA02F29E
:103BD000012B0FD0022B0FD0838A4FEA11210088CE
:103BE000134204FA01F400EA040001D000B10125F7
:103BF000284630BD8389F0E7038AEEE70A0A0121EF
:103C00009140C94301807047014988807047000096
:103C1000001001400044004000480040004C0040BB
:103C2000005000400014014000780040007C00403B
:103C3000354900200860091D0860091D0860091D3C
:103C400008603149314814310860704730B52E4959
:103C50008379026853B30B6893430B600A1D1368A2
:103C60000468A343136002790A4413680468234379
:103C70001360254A083213680468A3431360131DB8
:103C80001C680568AC431C604479102C05D02144A5
:103C90000A68006802430A6030BD11680468214365
:103CA0001160196800680143196030BD007908444B
:103CB00001689143016030BD0021016001710C2257
:103CC000427181717047104910310A6802430A60DD
:103CD000704701460C4A0020143212680A4200D094
:103CE0000120704708491431086070470146064AB0
:103CF0000020143212680A4200D0012070470249A5
:103D00001431086070470000003C0140FFFF7F0055
:103D100010B501218C032046FFF7ABFA2046BDE821
:103D200010400021FFF7A5BA1449086070471449F4
:103D30000862704710B58A0721F003041149130F78
:103D400021440F22D1F808489A409443C1F808480A
:103D5000D1F8082898400243C1F8082810BD084946
:103D6000C1F8DC007047084908607047034900202B
:103D700020310968C90500D501207047003801408D
:103D8000000027420030014000042742FE4910B5E0
:103D9000884206D101210846FFF76BFA0021012075
:103DA0005BE0B0F1804F09D0F84988420DD1012184
:103DB0000220FFF754FA0021022070E0012108469A
:103DC000FFF74DFA0021012069E0F149884206D150
:103DD00001210420FFF743FA002104205FE0ED49B0
:103DE000884206D101210820FFF739FA0021082076
:103DF00055E0E949884206D101211020FFF72FFA4A
:103E0000002110204BE0E549884206D10121202005
:103E1000FFF725FA0021202041E0E149884206D140
:103E200001210220FFF725FA0021022015E0DD49DB
:103E3000884202D101210C040AE0DB49884202D108
:103E400001214C0404E0D94988420AD101218C04A3
:103E50002046FFF70EFA00212046BDE81040FFF78C
:103E600008BAD349884206D101214020FFF7F7F96B
:103E70000021402013E0CF49884206D10121802053
:103E8000FFF7EDF90021802009E0CB4988420AD1F3
:103E9000841501212046FFF7E2F900212046BDE804
:103EA0001040FFF7DCB910BD30B50288B64BBC4CF2
:103EB00098420DD0A0420BD0B0F1804F08D0B34D46
:103EC000A84205D0B24DA84202D0B24DA84203D1BB
:103ED00022F070054A882A43AF4DA84206D0AF4D64
:103EE000A84203D022F440750A892A4302804A6816
:103EF000C2620A880285984201D0A04201D1897A23
:103F000001860121818230BD4FF0FF3141600021E7
:103F100001800181418081727047018582827047F2
:103F2000028822F070020A430280704741627047A3
:103F3000C1627047406A7047008D70470029018850
:103F400002D041F0020101E021F00201018070473E
:103F50000029018802D041F0040101E021F00401B0
:103F6000018070470029018802D041F0800101E002
:103F700021F0800101807047028822F0080202804F
:103F800002880A4302807047028822F4407202804D
:103F900002880A43028070470029018802D041F05C
:103FA000010101E021F001010180704730B5028C70
:103FB00022F001020284028C8388048B22F0020228
:103FC00024F073050C882C438D8915434A882A43B5
:103FD0006D4DA84202D0724DA8420DD122F00805C5
:103FE000CA8923F440732A4322F004058A882A43AD
:103FF0000D8A1D434B8A2B43838004838968416368
:10400000028430BD70B5028C22F010020284028C52
:104010008488038B0D8823F4E6464FF6FF7303EA8A
:10402000052535438E8922F0200203EA0616164341
:104030004A8803EA02123243534EB04202D0584E2D
:10404000B04215D122F08006CA8924F4406403EA04
:104050000212324322F040068A8803EA02123243F7
:104060000E8A03EA860626434C8A03EA8404344314
:104070008480058389688163028470BD70B5028C79
:1040800022F480720284028C8488838B0D8823F052
:1040900073031D4322F400738E894FF6FF7202EA08
:1040A00006261E434B8802EA03233343364EB042B2
:1040B00002D03B4EB04215D123F40066CB8924F4E4
:1040C000405402EA0323334323F480668B8802EAD8
:1040D000032333430E8A02EA061626434C8A02EA79
:1040E00004143443848085838968C163038470BD6C
:1040F00070B5028C22F480520284048C8288838BF7
:104100000D8823F4E6464FF6FF7303EA0525354391
:1041100024F400568C8903EA043434434E8803EABD
:1041200006362643184CA04202D01D4CA04205D1B1
:1041300022F480440A8A03EA821222438280858321
:1041400089680164068470BD0021018041808180FE
:1041500081608181C18101824182704730B5012433
:10416000058C00F118038C40A543058431B3082960
:104170002CD0091FC1F34E001844016848F6FF73A4
:104180001940016001681AE000000140000400408D
:1041900000080040000C00400010004000140040E7
:1041A000000401400040014000440140004801403B
:1041B00000180040001C00400020004006E04FF6C0
:1041C000FF7303EA02221143016030BD03EB51008B
:1041D00001684FF68F73194001600168F3E741638E
:1041E000704781637047C163704701647047028BF9
:1041F00022F070020A4302837047028B4FF6FF736E
:1042000022F4E04203EA0121114301837047828BCB
:1042100022F070020A4382837047828B4FF6FF734D
:1042200022F4E04203EA0121114381837047028BAB
:1042300022F008020A4302837047028B4FF6FF7395
:1042400022F4006203EA0121114301837047828B4B
:1042500022F008020A4382837047828B4FF6FF7375
:1042600022F4006203EA0121114381837047028B2B
:1042700022F004020A4302837047028B4FF6FF7359
:1042800022F4806203EA0121114301837047828B8B
:1042900022F004020A4382837047828B4FF6FF7339
:1042A00022F4806203EA0121114381837047028B6B
:1042B00022F080020A4302837047028B4FF6FF739D
:1042C000C2F30E0203EA0121114301837047828B7E
:1042D00022F080020A4382837047828B4FF6FF737D
:1042E000C2F30E0203EA0121114381837047028C5D
:1042F00022F002020A4302847047028C22F0080274
:104300000A4302847047028C4FF6FF7322F02002AA
:1043100003EA0111114301847047028C4FF6FF73C9
:1043200022F0800203EA0111114301847047028CDC
:104330004FF6FF7322F4007203EA01211143018456
:104340007047028C4FF6FF7322F4006203EA0121EA
:10435000114301847047028C4FF6FF7322F4005220
:1043600003EA013111430184704710B50123048C25
:104370008B409C430484038C8A401343038410BD08
:1043800010B50423048C8B409C430484038C8A4026
:104390001343038410BD828B22F440628283828B9C
:1043A0004FF6FF7303EA01210A4382837047828B31
:1043B00022F00C028283828B0A4382837047028B35
:1043C00022F440620283028B4FF6FF7303EA01215D
:1043D0000A4302837047F0B5048C24F0100404846F
:1043E000078B068C4FF6FF7404EA011527F4734718
:1043F00004EA0331394304EA02220A4326F0A00109
:10440000294341F0100102830184F0BD028B22F0A8
:104410000C020283028B0A43028370472DE9F041AC
:104420000D460E884988AA882B8904460EB3042EAF
:1044300026D0082E268C4FF6FF7028D026F4805602
:104440002684A78B268C00EA022200EA013127F499
:1044500073473A4300EA0330104326F420420A43EC
:1044600042F48051A0832184E9882046BDE8F041D0
:1044700091E700F062F9E9882046BDE8F041C5E720
:10448000FFF7A9FFE9882046BDE8F04197E726F449
:1044900080762684A78B268C00EA012100EA03108F
:1044A000104327F0F307384326F420620A4342F40E
:1044B0008071A0832184E9882046BDE8F04176E739
:1044C00000210180418001228280C18001817047EA
:1044D0002DE9F0410C46002649880746012501B91F
:1044E0000226A288012A00D10225208823890028DB
:1044F000384610D0FFF76FFFE1883846FFF75FFFBF
:1045000023892A463146384600F017F9E1883846B3
:10451000BDE8F0417AE700F010F9E1883846FFF78E
:1045200075FF23892A4631463846FFF754FFE18854
:104530003846BDE8F04142E7406B7047806B7047FA
:10454000C06B7047006C704710B50A884B88CC88E8
:104550001A438B8823431A430B891A434B89898951
:104560001A430A43A0F8442010BD00210180418075
:104570008180C1800181418181817047002930F8AB
:10458000441F02D041F4004101E0C1F30E0101805B
:1045900070470029818802D041F0040101E021F038
:1045A0000401818070470029818802D041F0010117
:1045B00001E021F0010181807047002A828901D049
:1045C0000A4300E08A438281704781827047024635
:1045D0000020128A0A4200D001207047C94301829C
:1045E000704702460020138A92890B4202EA0102B8
:1045F00002D0002A00D001207047C94301827047D1
:104600001143A0F848107047002A828901D00A435C
:1046100000E08A43828170470029818802D041F0FE
:10462000080101E021F0080181807047018921F033
:10463000070101817047028922F070020A4302815A
:10464000704700B50346FFF7F6FF188940F00700F2
:10465000188100BD70B516460D46602904464FF01E
:10466000010231460AD000F068F829462046FFF7DB
:10467000E2FF208940F00700208170BDFFF7ABFE0C
:10468000F3E730B504894FF6FF7505EA03231343BA
:10469000E4B20B432343038130BD10B50446FFF75A
:1046A000F0FF208940F07700208110BD10B504464E
:1046B000FFF7E7FF208940F48040208110BD828809
:1046C00022F07002828082880A43828070470289C9
:1046D00022F00702028102890A430281704702899F
:1046E00022F08002028102890A430281704770B57C
:1046F0000589048B068C25F007050D434FF6FC4118
:104700000C4040F201110C434FF6FF7101EA031116
:1047100026F022061143314305810483018470BDD4
:104720000029818802D041F0800101E021F0800160
:1047300081807047A0F85010704770B5048C24F049
:1047400001040484058B048C4FF6FF7606EA0313FC
:10475000134325F0F3052B4324F00A020A4342F0E9
:1047600001010383018470BD2DE9FC47044690F8E4
:1047700014054FF6FF76002520B1304600F032FEDA
:1047800084F8145594F8160530B300212823F0223C
:104790000846009600F010FECDE90056DC4BDD4ADD
:1047A0000A21052000F020FECDE90056D84B0A2151
:1047B0000520226900F018FE2723F0221946002068
:1047C000009500F009FE2823F022194600200095EC
:1047D00000F002FE84F8165594F8150548B32778C2
:1047E00022E000BFCDE9005620784FF03208381A99
:1047F00000EB800108EBC10081B2C54BC54A052022
:1048000000F0F2FDCDE9005604EB8700C04B0269D1
:104810002078381A00EB800108EBC10081B2052036
:1048200000F0E2FD7F1CFFB26078B842DAD284F873
:10483000155594F8170500284AD00096207B21785A
:104840005027401A00EB800107EBC101401C8BB2DE
:1048500000EB800006EAC001F022002000F0A6FD77
:104860000096207B21784FF04F08401A00EB800023
:1048700008EBC0014FF029098BB209EBC00081B2EF
:10488000EF22012000F092FD0095A0782178F0221F
:10489000401A00EB800107EBC101401C8BB200EB1A
:1048A000800006EAC001002000F080FD0095A0789D
:1048B0002178EF22401A00EB800008EBC0018BB298
:1048C00009EBC00081B2012000F070FD84F817559B
:1048D000BDE8FC8730B590F894308B704A7801249D
:1048E000934209D9057EAA4206D2521C4A700A7820
:1048F000521C0A7081F815450A78934208D24B7809
:10490000012B05D95B1E4B70521E0A7081F81545AC
:10491000D2B207E000EB820301EB82049B69521CD8
:1049200092B223614B789342F4D230BD30B501236B
:104930000B70027E072A00D307224A7090F8942059
:104940008A7090F894200A730022086108E000BF82
:1049500000EB820401EB8205E469521CD2B26C6167
:104960004C789442F4D881F8143581F8153581F8E3
:10497000163581F8173530BD2DE9F0430446C66978
:104980000020ADF2945D28250DF5A3690346F027BC
:104990004FF0500C0FE000BF00EB800209EB00115C
:1049A00005EBC2080B80A1F802808F800CEBC202DD
:1049B000401CCA80C0B2217E8142EDD811F0FF0FA9
:1049C0004FF001070AD084F8947069462046FFF73B
:1049D000ADFF6846FFF7C8FE207E38B96069002841
:1049E00000D080470DF2945DBDE8F0830DF28C514C
:1049F000081F00F03FFC054669462046FFF76AFFA6
:104A00006846FFF7B1FE732000F02EFB08B9022DB7
:104A100020D194F894008DF80C0094F89400401C78
:104A2000C0B284F89400217E884205D9401E84F8E3
:104A30009400401E8DF80C008DF8177569462046CD
:104A4000FFF748FF94F8940004EB800086696846FD
:104A5000FFF78AFE772000F007FB08B9032D1ED16F
:104A600094F894008DF80C0094F89400401E10F017
:104A7000FF0084F8940004D184F8947002208DF82B
:104A80000C008DF8177569462046FFF723FF94F850
:104A9000940004EB800086696846FFF765FE61209C
:104AA00000F0E2FA00289DD1642000F0DDFA50B158
:104AB0008DF814758DF815758DF816758DF81775B8
:104AC0003046FFF759FF042D90D10025C8461AE063
:104AD00008EB0510BDF88C25BDF8881500F0F8FA34
:104AE00078B18DF814758DF815758DF816758DF8EB
:104AF00017759DF80000284404EB80008069FFF7DB
:104B00003BFF6D1CEDB2207EA8427FF66FAFDFE762
:104B10003C080020B80800201CB5FBA1FE48FBF7AC
:104B2000BEFDFE4C207868B9012000F065FC002035
:104B300000F062FC022000F05FFC032000F05CFC4F
:104B4000012020704FF6FF742046FCF728F8E1079B
:104B50000020CDE90001F24BF2A20A21FCF732FA63
:104B6000312000F081FA10B1012000F076FC3220F3
:104B700000F07AFA10B1002000F06FFC332000F052
:104B800073FA10B1022000F068FC342000F06CFAD7
:104B900010B1032000F061FC1B2000F065FA002832
:104BA000DED02046BDE81C40FBF7F9BF2DE9FC47ED
:104BB0003E240020FBF7F3FFA6074FF6FF75CDE973
:104BC0000056E44BE4A232210A20FCF7FBF904E092
:104BD000612000F049FA00283DD1642000F044FA39
:104BE0000028F5D00020FBF7DAFF73234FF4827220
:104BF00064213C200095FCF77DFACDE90056D54BA9
:104C0000E0A278214620FCF7DDF94FF4784840F225
:104C1000DC574FF48179A2B2712366213E20CDF892
:104C20000080FCF789FA0020241D00BF401CB84218
:104C3000FBDB4C45EFDB0020FBF7B1FFCDE9005675
:104C4000C44BD7A278214B20FCF7BCF91B2000F005
:104C50000BFA0028FAD0BDE8FC872DE9F05F1E466C
:104C600092468B468146002527E000BFAAF120012D
:104C700011FB0050726800240BEB050832F810702D
:104C800017E000BF07FA04F0000406D509EB0400A2
:104C90001FFA88F180B20A9A08E00B98002807DB17
:104CA00009EB04001FFA88F180B20B9AFCF701F9B6
:104CB000641C3078A042E5D86D1C7078A842D5D825
:104CC000BDE8F09F2DE9F04FADF57D7D1D20FA90F8
:104CD000002022258046F9908146FB90FBF75FFF7C
:104CE000A9074FF4FC60CDE900019A4BB24A0F21AD
:104CF0001920FCF767F904E01B2000F0B5F9002843
:104D00007DD10D2000F0B0F90028F5D00020FBF790
:104D100046FF0DF1080A4FF0000BA8480078002864
:104D2000FBD100F0ACF904460D281FD01B2C66D037
:104D30004FF4FC61CDE9001B864B22464146F998B1
:104D4000FFF78BFFFB9800EB4001C1EB4011514492
:104D500001F80940F998C01D80B2F990FB98401CF9
:104D600080B2FB90F998EE2828D032E020264FF44C
:104D7000FC67FB9C13E000BFCDE9007BC4EBC400E3
:104D800080B2744B20224146FFF767FF04EB4400DA
:104D9000C0EB44115144641C01F80960A4B2AC4258
:104DA000EAD30020FB9009F101001FFA80F90020EE
:104DB000F99008F10B001FFA80F80AE00020F99042
:104DC000FB9008F10B001FFA80F809F101001FFAAF
:104DD00080F9A8F580713F3938D1A8F10B001FFA8E
:104DE00080F8A9F101001FFA80F9002404EB4400C7
:104DF000002600EBC40700BF06EB460000E03BE0E6
:104E0000C0EB461101EB0A000119524B4A780255DA
:104E10004FF4FC61CDE9001BC6EBC600B9B280B20D
:104E2000FFF71BFF761CB6B2AE42E5D3FA98641CBE
:104E3000A4B2401E8442D9DB08F10B0083B2F022F9
:104E400041460020CDF800B0FCF776F9F99E4FF40A
:104E5000FC6008F109040090F61DA3B2B2B241460D
:104E6000F998FCF747F9A3B2B2B24146CDF800B0C9
:104E7000F998FCF73FF950E70DF57D7DBDE8F08F1F
:104E80004FA12548FBF70BBC2DE9F0418CB0142055
:104E9000ADF800002821ADF802004627ADF8041057
:104EA000ADF81470ADF806103223ADF8161050218D
:104EB000ADF81030ADF8281000244FF4FC66ADF8C2
:104EC0001200ADF82A00CDE90246ADF82E3064207C
:104ED000ADF82C004FF47847CDE9064730254FF662
:104EE000FF70FBF75CFE684600F002F904A800F0D2
:104EF000FFF80AA800F011F9B0463E462F4F684669
:104F000000F0C8F862E000004C45442066756E630E
:104F100074696F6E0A0D000000100140CD0800207A
:104F20003C080020436F6E74726F6C20796F75724D
:104F3000204C454473207573696E67206E756D62F1
:104F400065727320312C20322C203320616E642056
:104F5000340000003408002041726520796F75200C
:104F60007375726520796F752077616E7420746F28
:104F70002073746172742061706F63616C797073F7
:104F8000653F000041706F63616C797073652069E3
:104F90006E2070726F67726573732E2E2E00000084
:104FA00041706F63616C7970736520636F6D706CB5
:104FB00065746564000000009C8E0008CE08002027
:104FC0005665727A696A61200A00000000B14446A1
:104FD00004A800F05FF800B134460AA800F00BF90D
:104FE000387810B900F04BF8054609A908A8FBF776
:104FF0005CFCA5F1300082B2A3B2BDF82410BDF86C
:10500000200000F0E4F91B2000F02EF800283FF407
:1050100076AF0CB0BDE8F08170B50123002500E04B
:105020005343B1FBF3F49442FAD20FE0B1FBF3F433
:10503000B1FBF3F603FB1611B3FBF2F3092C01D914
:10504000373400E0303444556D1CEDB2002BEDD107
:105050000021415570BD0000017819B10021017097
:10506000012070470020704709490A782AB94A7818
:10507000824202D101200870704700207047044826
:105080000178002902D101210170407870470000A9
:10509000CE0800201CB5044600F0EAF8002814D021
:1050A00001A9684600F0E2F82188BDF800008142BD
:1050B0000CD2A188814209D96188BDF804008142DF
:1050C00004D2E188814201D901201CBD00201CBD11
:1050D00003888B420AD283888B4207D94188914248
:1050E00004D2C088904201D9012070470020704747
:1050F00038B50446808980B20090E388A288618830
:10510000208800F059F9208980B20090E388A288B5
:105110006188208800F04AF938BD38B504464088D7
:105120004BF6F755401D81B220882B46052200F032
:105130004EF960880023401D81B22088052200F0CE
:1051400041F92088A1882B460844618880B2491D16
:1051500089B2052200F03BF92088A1880023084489
:10516000618880B2491D89B2052200F02BF90095B3
:105170002088A18801448AB2618801F10A039BB2A8
:1051800000F01AF9002500952088A18801448AB210
:1051900061880B4600F020F900952588A0882844F6
:1051A00082B260880A3083B281B2284600F014F9D6
:1051B000A0886425B0FBF5F0E188228847F6EF333C
:1051C00000FB0120618880B2491D89B2052200F0F0
:1051D000FEF8A088E188B0FBF5F02288002300FBF0
:1051E0000120618801B0491DBDE8304080B289B21C
:1051F000052200F0E7B87CB5044600F039F8002835
:105200002CD001A9684600F031F82188BDF80000D3
:10521000814224D2A2888B18834220D96588BDF8A8
:1052200004309D421BD20A359D4218D9401A00EE27
:10523000100AF8EEC00A00EE102AB8EE401A80EE0E
:10524000810ADFED080A20EE200ABCEEC00A10EE4B
:10525000100AE0802046FFF760FF01207CBD00209F
:105260007CBD00000000C842FBF746BAFBF71DBB3F
:10527000FBF7B0BA2DE9F04788462DED028B84B0DC
:105280008146FBF7A7FA002877D003A902A801E01E
:1052900001A96846FFF7EAFFFBF79CFA9FED3F8BF9
:1052A0006FF03B070028F3D1BDF80000BDF80810EF
:1052B000401A06B2BDF80400BDF80C10401A05B241
:1052C000304602F010FA8A4604464AEC100B02F00F
:1052D0006EF853EC182B51EC100B02F0ABFA0DD317
:1052E000284602F000FA41EC100B02F060F853EC93
:1052F000182B51EC100B02F09DFA43D2284602F015
:10530000F2F98946804649EC100B02F050F8B0EEF5
:10531000408AF0EE608A4AEC104B02F048F853ECF9
:10532000182B51EC100B02F085FA0BD23C2E05DD48
:10533000012004B0BDEC028BBDE8F087BE4201DA6B
:105340000020F6E749EC108B02F031F8B0EE401A7D
:10535000F0EE601AB0EE418AF0EE618A4AEC104B32
:1053600002F025F853EC182B51EC100B02F0D2F997
:1053700012D23C2D02DD0320DBE70DE0BD420BDA4B
:105380000220D6E7BDF80010A9F80010BDF80410FF
:10539000A8F800100420CCE70520CAE700000000B0
:1053A00000004E40FBF749BDFBF783BD38B5049CB8
:1053B0000094FBF79FFE38BD38B5049C0094FBF7C2
:1053C000BBFE38BD12B209B200B2FBF7C9BE12B2C1
:1053D00009B200B2FBF74CBF38B5049C0094FBF750
:1053E0002AFE38BDFBF7DBBB7CB5DDE90645CDE920
:1053F0000045FBF7E7FD7CBD1CB50446464801218E
:1054000050F82400FDF7DBFE43480021083830F84F
:105410001400009001208DF804008DF806108DF81E
:10542000070002208DF805003C48694650F824002A
:10543000FEF708F81CBD3849384A083931F8101011
:1054400052F82000018370473349344A083931F853
:10545000101052F8200041837047304951F8201055
:105460004A692D4B083B33F8100042404A617047AF
:1054700070B5044628480E460C3886B050F8240013
:105480000121FDF79CFE01218803FDF7C0FE2248A3
:1054900000258DF8105010388DF8135030F8140096
:1054A00003901E4803A9001F50F82400FDF7CAFF0F
:1054B000012E25D118481338015D401E005DFEF70E
:1054C00039FC15480E3830F8140000908DF804505F
:1054D00008208DF8050001258DF806506846FEF776
:1054E000B5FB0D481238005D8DF808000F208DF8CF
:1054F00009008DF80A008DF80B5002A8FDF7A3FCF7
:1055000006B070BD0449054A1039121F31F8101059
:1055100052F82000FDF7FCBF8C8E0008D408002054
:1055200010B5044600221046C4F8102304EB820391
:10553000C3F81403C3F85003A31883F88C03521C58
:10554000D2B20F2AF2D30820A4F8B203204600F00A
:105550008BF8204600F02EF9204600F0E3F80121F8
:10556000204600F067F9204600F0F5F9204600F0EB
:1055700019F9002010BDD0F8CC000068C0F34140FC
:10558000704710B500F0CCF9002010BDD0F8100322
:1055900070474069806880B27047084490F89B0368
:1055A000704700EB8100D0F850037047084490F832
:1055B0008C03704700F034BA0022431883F89B2311
:1055C00000EB4113C3F8C02300F0A0BAF8B50027E0
:1055D00004463E460097FE4D032001F045FEE0687C
:1055E00000690090761CAE4201D90020F8BD0098F9
:1055F0000028F1DA0099002041F0010100910099A2
:10560000E2681161E1680A690092401CA84202D870
:10561000009AD207F7D1032001F026FE3846F8BDE4
:1056200030B5C47800256CB900EB82000024DB1C87
:105630009B08D0F8D00003E051F8042B0260641CF2
:105640009C42F9D3284630BD034610B50020D21C39
:105650009208D3F8D03003E01C6841F8044B401C9A
:105660009042F9D3084610BD70B500220125C270E2
:1056700040268570144613468680012901D061B109
:1056800014E0C5720821017004214FF0A04241705E
:105690009115C1800221017208E0C3720C210170D2
:1056A00006214170CB4A4FF4A061C18002F5006130
:1056B000C0E9032100210AE002EB411303F5106663
:1056C00000EB810503F53063AE61491C6B654378DF
:1056D0008B42F1D802F5806141614031C0F8CC10B5
:1056E000002108E002EB411300EB810503F5A06304
:1056F000491CC5F8903003788B42F3D8002108E0AC
:1057000002EB013300EB810503F58053491CC5F81A
:10571000D03003788B42F3D802F56062C0F80C21D8
:10572000204670BD70B50446017A0025C068012985
:1057300015D0C16841F04001C1602046FFF746FF27
:10574000617A4FF4341009B14FF47410E168886342
:10575000142001F068FDE078012819D020E0816B69
:10576000627A21F480310AB141F480118163E068EA
:10577000C16821F0401121F42021C1602046FFF7CB
:1057800025FFE07801280BD1E1682A208860E2E754
:10579000E068816821F01E010A3141F0200181603A
:1057A000284670BDC0680021826842F00102826014
:1057B00008467047C0680021826822F001028260BA
:1057C0000846704738B5002422460094009B43F0F9
:1057D00020030093009B61F38A1300930099C36830
:1057E00019617B49C06803690093521C8A4202D840
:1057F000009B9B06F7D4032001F036FD204638BD00
:1058000038B5002421460094009A42F0100200921C
:10581000009AC3681A616E4AC06803690093491C04
:10582000914202D8009BDB06F7D4032001F01CFD57
:10583000204638BD10B5C0680024C268012922F096
:10584000C04201D019B104E042F0005201E042F040
:105850008042C260322001F0E6FC204610BDC068E4
:10586000406900F001007047C068406910F0010F06
:1058700001D00020704701207047C068406910F0D7
:10588000010000D001207047C0684169806908406C
:105890007047C0684068704710B5C3680022114661
:1058A0009A61C468531E6361C4686360C4686FF022
:1058B00080436361C468484BA361C37803B9102176
:1058C000C06841F00C5141F00801836941F40011B6
:1058D0008B430B438361104610BDD0F8CC000068A9
:1058E00020F02E00704770B50C46054601F092FC82
:1058F0002846FFF7F2FFC10403D4012C03D0C104F2
:1059000009D51CB107E040F4805001E020F480503C
:10591000D5F8CC100860BDE87040C82001F083BC09
:1059200070B50446FFF7D9FF40F4807554F8CC0FEA
:1059300005600A2001F077FC216825F4807008607A
:10594000142001F070FC012070BD4269106861F301
:105950000100106070472DE9F041002704463E46E3
:105960003D4601F063FCD4F80C010560207A012863
:105970000FD001212046FFF7E8FF2046FFF7D0FFB8
:105980006069016821F004010160E07A012802D019
:1059900015E00021EEE7E06880214162284661F3CE
:1059A0000F00E268602161F31F409062E022284608
:1059B00062F30F0061F31F40E168C1F8000110219C
:1059C0002046FFF7FFFE2046FFF71AFF06E0000023
:1059D000400D030000000440000800804FF0FF313C
:1059E00008E000BF04EB860050F8902F916000683B
:1059F000C560761C2078B042F4D801212046FFF71C
:105A000072FF2046FFF748FF3846BDE8F081406945
:105A1000806840F30000401C70474069406970474F
:105A2000F0B5074607EB81060020D6F890500446F3
:105A3000431E2246AB60FB78012B00D1042207EB0A
:105A4000411393F8B15335B1012D1FD0022D02D06F
:105A5000032D27D10EE042F0890545F4826293F8C8
:105A6000AE5385B993F8B05342F04002D5B142F03D
:105A7000200217E093F8AEC342F0990545F4C062E6
:105A8000BCF1000F0ED042F480720BE093F8AEC36D
:105A900042F0010242F40872BCF1000F02D042F061
:105AA0008002F0E7D6F89050EA6001228A407969D6
:105AB0008D6915438D61F9688A6942F000728A61C7
:105AC00093F8AC1361F39C5493F8AD1361F3CE24B7
:105AD00093F8AE1361F3CF3493F8AF1302290CD0CF
